:020000040000FA
:0600000003EF28F01200DE
:0200060058029E
:080008009EAA02D097EF21F03F
:020010001200DC
:06001200A6B2FED71200A9
:08001800F2A402D046EF24F02F
:0C0020001200D08E9F8AF28EF28C12002B
:04002C00FF0EE35090
:10003000186E480E01D04C0EE76EE72EFED7E76A29
:0C004000E72EFED7182EF7D700001200A4
:02004C001200A0
:01004E0000B1
:100050000C000F53000072020000180000000D5346
:1000600000009D020000020000004E000000A002FF
:100070000000010000000A530000FC010000030022
:1000800000000153000094020000090000009C528F
:10009000000000030000650000004C520000000258
:1000A0000000500000002A52000050020000220010
:1000B00000005351000065030000D70000003551D7
:1000C00000008A0100001E000000AB50000000018B
:1000D00000008A00000069500000A80100004200F2
:0200E00000001E
:0E00E200D9CFE6FFE1CFD9FF0A0EE126050EC9
:1000F000DB6A060EDB6A070EDB6A080EDB6A090E96
:10010000DB6A0301036B046B056B066B0301076B72
:10011000086B096B0A6B0301696BDE6ADD6ADECF6F
:1001200014F0DDCF15F0030E145C000E155801E33A
:10013000AED0DECF14F0DDCF15F0190E1502F3CFDF
:1001400015F0190E1402F3CF14F0F4501526170E03
:100150001426030E1522030E14C0DBFF040E15C077
:10016000DBFF020EDB6A190EF36E020EDBCFF4FF2B
:10017000F350F45C35E209EC00F00400020EDB50B1
:10018000166E176A190E086E096ADECF0DF0DDCF04
:100190000EF09DEC27F006501624146E0750172021
:1001A000156E14C0E6FF15C0E6FF5CEC27F0E552C3
:1001B000E552E66E020EDB50E76E030EDBCFE9FF81
:1001C000040EDBCFEAFFE750E926000EEA22E552F3
:1001D000E750EF6E09EC00F00400020EDB2AC3D7F3
:1001E000DECFE9FFDDCFEAFF190EEA02F3CFEAFF27
:1001F000190EE902F3CFE9FFF450EA26170EE926BB
:10020000030EEA22170EE926000EEA22EF0402E1AD
:100210000301012BDECFE9FFDDCFEAFF190EEA0271
:10022000F3CFEAFF190EE902F3CFE9FFF450EA2613
:10023000170EE926030EEA22170EE926000EEA221F
:10024000EF50030802E10301022BDECFE9FFDDCF0F
:10025000EAFF190EEA02F3CFEAFF190EE902F3CF23
:10026000E9FFF450EA26170EE926030EEA22180EDB
:10027000E926000EEA22EF0405E1010EF36E050EF9
:10028000F3CFDBFFDF2A010E01E3DB2A48D70301AE
:100290000251000806E2010EF36E080EF3CFDBFFF9
:1002A0000FD003010151000806E2010EF36E070EA4
:1002B000F3CFDBFF05D0010EF36E060EF3CFDBFFAD
:1002C000050EDB0405E1010EF36E090EF3CFDBFF33
:1002D0000301310E0D6F0301300E0E6F0301300E5E
:1002E0000F6F0301330E106F0301116B0301060E34
:1002F000646F09EC00F00400E66AE66AE66AE66A02
:100300007DEC14F0E552E552E552E55231D8030197
:10031000010E626F090EDBCFE6FF080EDBCFE6FFB2
:10032000070EDBCFE6FF060EDBCFE6FF7DEC14F019
:10033000E552E552E552E552EC0EE66E2D0EE66E04
:10034000DD0EE66ECC0EE66EBB0EE66EAA0EE66E17
:100350003DEC1DF0146E060EE15E14500A0EE15CD9
:1003600002E2E16AE552E16EE552E7CFD9FF120001
:10037000D9CFE6FFE1CFD9FF050EE126DF6A010EF6
:10038000DB6A020EDB6A030EDB6A0301025100081E
:1003900008E2030E006F010EF36E020EF3CFDBFFD7
:1003A0000DD00151000805E2010E006FDE52DD6E36
:1003B00005D0006B010EDF6E030EDB6A040EDB6AF4
:1003C000030EF36E040EDBCFF4FFF350F45C1AE27D
:1003D000040EDB50190DF3CFE9FFF4CFEAFF170E3F
:1003E000E926030EEA22180EE926000EEA22EF049F
:1003F00006E1010EF36E030EF3CFDBFF03D0040E14
:10040000DB2ADED7030EDBCFE6FF020EDBCFE6FFF3
:10041000010EDBCFE6FFDFCFE6FF7DEC14F0E55207
:10042000E552E552E552050EE15C02E2E16AE55271
:10043000E16EE552E7CFD9FF1200D9CFE6FFE1CF59
:10044000D9FF050EE126DF6A010EDB6A020EDB6AC8
:10045000030EDB6A03010251000808E2030E006F7D
:10046000010EF36E020EF3CFDBFF0DD00151000839
:1004700005E2010E006FDE52DD6E05D0006B010E4D
:10048000DF6E030EDB6A030EDBCFE6FF020EDBCF6F
:10049000E6FF010EDBCFE6FFDFCFE6FF7DEC14F0D9
:1004A000E552E552E552E5520301010E626F146E0A
:1004B000050EE15C03E200D0E16AE552E16E145002
:1004C000E552E7CFD9FF1200D9CFE6FFE1CFD9FF40
:1004D000050EE126DF6A010EDB6A020EDB6A030EFF
:1004E000DB6AFD0EDBCFE6FFFE0EDBCFE6FF120E72
:1004F000E66E030EE66ED9EC24F0E552E552E552C5
:10050000E552000902E0000E1FD0030EDBCFE6FF2C
:10051000020EDBCFE6FF010EDBCFE6FFDFCFE6FF0B
:100520007DEC14F0E552E552E552E552FB0EDBCFCF
:10053000E6FFFC0EDBCFE6FF2DEC14F0E552E552B2
:100540000301626B010E00D0146E050EE15C02E245
:10055000E16AE552E16E1450E552E7CFD9FF12008F
:10056000D9CFE6FFE1CFD9FF090EE126010EF36EE8
:10057000080EF3CFDBFFB2EC25F006C007F307C08F
:1005800008F308C009F309C00AF3030EE96E030E6D
:10059000EA6EEE50030107190CE1EE500301081951
:1005A00008E1EE500301091904E1EE5003010A19B4
:1005B00000E101E1BBD007C303F308C304F309C39F
:1005C00005F30AC306F3DF6A030EDF5C01E3A4D080
:1005D000DF50190DF3CFE9FFF4CFEAFF170EE9263C
:1005E000030EEA22170EE926000EEA22EF0401E0CC
:1005F00091D0DF50190DF3CFE9FFF4CFEAFF170ECA
:10060000E926030EEA22150EE926000EEA22EE067E
:10061000000EED5ADF50190DF3CFE9FFF4CFEAFFDA
:10062000170EE926030EEA22150EE926000EEA222D
:10063000E9CF14F0EACF15F0010E14C0DBFF020E73
:1006400015C0DBFF010EDBCFE9FF020EDBCFEAFFB7
:10065000030EEFCFDBFF190EDF02F350150F146E00
:10066000040E14C0DBFF050EDB6A060EDB6A070E04
:10067000DB6A010EDBCFE9FF020EDBCFEAFFEF50B2
:10068000E66E190EDF02F350150FE66EE66AB5EC62
:1006900026F0E552E552E55209EC00F00400010EA7
:1006A000E76E010EDBCFE9FF020EDBCFEAFFE7507A
:1006B000E926000EEA22030EEFCFDBFF190EDF0260
:1006C000F350150F010F146E040E14C0DBFF050E5E
:1006D000DB6A060EDB6A070EDB6A010EE76E010EAF
:1006E000DBCFE9FF020EDBCFEAFFE750E926000E81
:1006F000EA22EF50E66E190EDF02F350150F010FDC
:10070000E66EE66AB5EC26F0E552E552E55209ECF4
:1007100000F00400DF2A58D73EEC15F0010806E18E
:100720008A860301015102E18A988A9A090EE15CE6
:1007300002E2E16AE552E16EE552E7CFD9FF12002D
:10074000D9CFE6FFE1CFD9FF040EE126FD0EDBCFC6
:10075000E9FFFE0EDBCFEAFF200EE926000EEA22BB
:10076000EF28DF6E010EDB6A020EDB6A030EDF5C30
:1007700001E3DF6AFD0EDBCFE9FFFE0EDBCFEAFF10
:10078000200EE926000EEA22EF68030EDB6AF36E04
:10079000DBCFF4FFF350F45C02E344EF09F0030E07
:1007A000146E14C00EF0DFCF09F011EC28F00550E4
:1007B000DF6EDF50190DF3CFE9FFF4CFEAFF170E1C
:1007C000E926030EEA22170EE926000EEA22EF5070
:1007D00010E0DF50190DF3CFE9FFF4CFEAFF170E59
:1007E000E926030EEA22180EE926000EEA22EF504F
:1007F00004E1030EDB2ADF2ACAD7FD0EDBCFE9FFB7
:10080000FE0EDBCFEAFFE9CF14F0EACF15F0010EC0
:10081000DBCFF3FFDB2AF3500F011424E96E000E47
:100820001520EA6E530EEF6EFD0EDBCFE9FFFE0ED4
:10083000DBCFEAFFE9CF14F0EACF15F0010EDBCFF2
:10084000F3FFDB2AF3501424E96E000E1520EA6E44
:10085000540EEF6EFD0EDBCFE9FFFE0EDBCFEAFF9D
:10086000E9CF14F0EACF15F0010EDBCFF3FFDB2A5E
:10087000F3501424E96E000E1520EA6E4E0EEF6E52
:10088000FD0EDBCFE9FFFE0EDBCFEAFFE9CF14F070
:10089000EACF15F0010EDBCFF3FFDB2AF35014246F
:1008A000E96E000E1520EA6E3A0EEF6EDF50190D5C
:1008B000F3CFE9FFF4CFEAFF170EE926030EEA2291
:1008C000E9CF16F0EACF17F0020EDBCFF3FFDB2AF9
:1008D000F3501624E96E000E1720EA6EEF50E66E14
:1008E000FD0EDBCFE9FFFE0EDBCFEAFFE9CF14F010
:1008F000EACF15F0010EDBCFF3FFDB2AF35014240F
:10090000E96E000E1520EA6EE552E750EF6EDF50FB
:10091000190DF3CFE9FFF4CFEAFF170EE926030E16
:10092000EA22E9CF16F0EACF17F0020EDBCFF3FF91
:10093000DB2AF3501624E96E000E1720EA6EEF5002
:10094000E66EFD0EDBCFE9FFFE0EDBCFEAFFE9CF5F
:1009500014F0EACF15F0010EDBCFF3FFDB2AF350E2
:100960001424E96E000E1520EA6EE552E750EF6E92
:10097000FD0EDBCFE9FFFE0EDBCFEAFFE9CF14F07F
:10098000EACF15F0010EDBCFF3FFDB2AF35014247E
:10099000E96E000E1520EA6E3B0EEF6EDF50190D6A
:1009A000F3CFE9FFF4CFEAFF170EE926030EEA22A0
:1009B000E9CF14F0EACF15F0020EDB501424E96EF3
:1009C000000E1520EA6EEF50360A01E1DCD3030A6F
:1009D00001E1E6D2010A01E132D2070A01E17ED14A
:1009E000010A01E19ED0030A01E0E4D3FD0EDBCF52
:1009F000E9FFFE0EDBCFEAFFE9CF14F0EACF15F0F6
:100A0000010EDBCFF3FFDB2AF3501424E96E000E56
:100A10001520EA6E530EEF6EFD0EDBCFE9FFFE0EE2
:100A2000DBCFEAFFE9CF14F0EACF15F0010EDBCF00
:100A3000F3FFDB2AF3501424E96E000E1520EA6E52
:100A4000410EEF6EFD0EDBCFE9FFFE0EDBCFEAFFBE
:100A5000E9CF14F0EACF15F0010EDBCFF3FFDB2A6C
:100A6000F3501424E96E000E1520EA6E460EEF6E68
:100A7000FD0EDBCFE9FFFE0EDBCFEAFFE9CF14F07E
:100A8000EACF15F0010EDBCFF3FFDB2AF35014247D
:100A9000E96E000E1520EA6E450EEF6EFD0EDBCFFF
:100AA000E9FFFE0EDBCFEAFFE9CF14F0EACF15F045
:100AB000010EDBCFF3FFDB2AF3501424E96E000EA6
:100AC0001520EA6E540EEF6EFD0EDBCFE9FFFE0E31
:100AD000DBCFEAFFE9CF14F0EACF15F0010EDBCF50
:100AE000F3FFDB2AF3501424E96E000E1520EA6EA2
:100AF000790EEF6EFD0EDBCFE9FFFE0EDBCFEAFFD6
:100B0000E9CF14F0EACF15F0010EDBCFF3FFDB2ABB
:100B1000F3501424E96E000E1520EA6E3B0EEF6EC2
:100B200049D3FD0EDBCFE9FFFE0EDBCFEAFFE9CFB5
:100B300014F0EACF15F0010EDBCFF3FFDB2AF35000
:100B40001424E96E000E1520EA6E420EEF6EFD0EC3
:100B5000DBCFE9FFFE0EDBCFEAFFE9CF14F0EACFEF
:100B600015F0010EDBCFF3FFDB2AF3501424E96EFE
:100B7000000E1520EA6E520EEF6EFD0EDBCFE9FF80
:100B8000FE0EDBCFEAFFE9CF14F0EACF15F0010E3D
:100B9000DBCFF3FFDB2AF3501424E96E000E15209F
:100BA000EA6E450EEF6EFD0EDBCFE9FFFE0EDBCFEA
:100BB000EAFFE9CF14F0EACF15F0010EDBCFF3FF27
:100BC000DB2AF3501424E96E000E1520EA6E410E64
:100BD000EF6EFD0EDBCFE9FFFE0EDBCFEAFFE9CFC4
:100BE00014F0EACF15F0010EDBCFF3FFDB2AF35050
:100BF0001424E96E000E1520EA6E4B0EEF6EFD0E0A
:100C0000DBCFE9FFFE0EDBCFEAFFE9CF14F0EACF3E
:100C100015F0010EDBCFF3FFDB2AF3501424E96E4D
:100C2000000E1520EA6E440EEF6EFD0EDBCFE9FFDD
:100C3000FE0EDBCFEAFFE9CF14F0EACF15F0010E8C
:100C4000DBCFF3FFDB2AF3501424E96E000E1520EE
:100C5000EA6E4F0EEF6EFD0EDBCFE9FFFE0EDBCF2F
:100C6000EAFFE9CF14F0EACF15F0010EDBCFF3FF76
:100C7000DB2AF3501424E96E000E1520EA6E570E9D
:100C8000EF6EFD0EDBCFE9FFFE0EDBCFEAFFE9CF13
:100C900014F0EACF15F0010EDBCFF3FFDB2AF3509F
:100CA0001424E96E000E1520EA6E4E0EEF6EFD0E56
:100CB000DBCFE9FFFE0EDBCFEAFFE9CF14F0EACF8E
:100CC00015F0010EDBCFF3FFDB2AF3501424E96E9D
:100CD000000E1520EA6E3B0EEF6E6CD2FD0EDBCFE0
:100CE000E9FFFE0EDBCFEAFFE9CF14F0EACF15F003
:100CF000010EDBCFF3FFDB2AF3501424E96E000E64
:100D00001520EA6E510EEF6EFD0EDBCFE9FFFE0EF1
:100D1000DBCFEAFFE9CF14F0EACF15F0010EDBCF0D
:100D2000F3FFDB2AF3501424E96E000E1520EA6E5F
:100D3000550EEF6EFD0EDBCFE9FFFE0EDBCFEAFFB7
:100D4000E9CF14F0EACF15F0010EDBCFF3FFDB2A79
:100D5000F3501424E96E000E1520EA6E410EEF6E7A
:100D6000FD0EDBCFE9FFFE0EDBCFEAFFE9CF14F08B
:100D7000EACF15F0010EDBCFF3FFDB2AF35014248A
:100D8000E96E000E1520EA6E4C0EEF6EFD0EDBCF05
:100D9000E9FFFE0EDBCFEAFFE9CF14F0EACF15F052
:100DA000010EDBCFF3FFDB2AF3501424E96E000EB3
:100DB0001520EA6E490EEF6EFD0EDBCFE9FFFE0E49
:100DC000DBCFEAFFE9CF14F0EACF15F0010EDBCF5D
:100DD000F3FFDB2AF3501424E96E000E1520EA6EAF
:100DE000540EEF6EFD0EDBCFE9FFFE0EDBCFEAFF08
:100DF000E9CF14F0EACF15F0010EDBCFF3FFDB2AC9
:100E0000F3501424E96E000E1520EA6E590EEF6EB1
:100E1000FD0EDBCFE9FFFE0EDBCFEAFFE9CF14F0DA
:100E2000EACF15F0010EDBCFF3FFDB2AF3501424D9
:100E3000E96E000E1520EA6E3B0EEF6EBBD1FD0E83
:100E4000DBCFE9FFFE0EDBCFEAFFE9CF14F0EACFFC
:100E500015F0010EDBCFF3FFDB2AF3501424E96E0B
:100E6000000E1520EA6E4D0EEF6EFD0EDBCFE9FF92
:100E7000FE0EDBCFEAFFE9CF14F0EACF15F0010E4A
:100E8000DBCFF3FFDB2AF3501424E96E000E1520AC
:100E9000EA6E450EEF6EFD0EDBCFE9FFFE0EDBCFF7
:100EA000EAFFE9CF14F0EACF15F0010EDBCFF3FF34
:100EB000DB2AF3501424E96E000E1520EA6E540E5E
:100EC000EF6EFD0EDBCFE9FFFE0EDBCFEAFFE9CFD1
:100ED00014F0EACF15F0010EDBCFF3FFDB2AF3505D
:100EE0001424E96E000E1520EA6E480EEF6EFD0E1A
:100EF000DBCFE9FFFE0EDBCFEAFFE9CF14F0EACF4C
:100F000015F0010EDBCFF3FFDB2AF3501424E96E5A
:100F1000000E1520EA6E4F0EEF6EFD0EDBCFE9FFDF
:100F2000FE0EDBCFEAFFE9CF14F0EACF15F0010E99
:100F3000DBCFF3FFDB2AF3501424E96E000E1520FB
:100F4000EA6E440EEF6EFD0EDBCFE9FFFE0EDBCF47
:100F5000EAFFE9CF14F0EACF15F0010EDBCFF3FF83
:100F6000DB2AF3501424E96E000E1520EA6E530EAE
:100F7000EF6EFD0EDBCFE9FFFE0EDBCFEAFFE9CF20
:100F800014F0EACF15F0010EDBCFF3FFDB2AF350AC
:100F90001424E96E000E1520EA6E3B0EEF6E0AD1A6
:100FA000FD0EDBCFE9FFFE0EDBCFEAFFE9CF14F049
:100FB000EACF15F0010EDBCFF3FFDB2AF350142448
:100FC000E96E000E1520EA6E500EEF6EFD0EDBCFBF
:100FD000E9FFFE0EDBCFEAFFE9CF14F0EACF15F010
:100FE000010EDBCFF3FFDB2AF3501424E96E000E71
:100FF0001520EA6E520EEF6EFD0EDBCFE9FFFE0EFE
:10100000DBCFEAFFE9CF14F0EACF15F0010EDBCF1A
:10101000F3FFDB2AF3501424E96E000E1520EA6E6C
:101020004F0EEF6EFD0EDBCFE9FFFE0EDBCFEAFFCA
:10103000E9CF14F0EACF15F0010EDBCFF3FFDB2A86
:10104000F3501424E96E000E1520EA6E440EEF6E84
:10105000FD0EDBCFE9FFFE0EDBCFEAFFE9CF14F098
:10106000EACF15F0010EDBCFF3FFDB2AF350142497
:10107000E96E000E1520EA6E550EEF6EFD0EDBCF09
:10108000E9FFFE0EDBCFEAFFE9CF14F0EACF15F05F
:10109000010EDBCFF3FFDB2AF3501424E96E000EC0
:1010A0001520EA6E430EEF6EFD0EDBCFE9FFFE0E5C
:1010B000DBCFEAFFE9CF14F0EACF15F0010EDBCF6A
:1010C000F3FFDB2AF3501424E96E000E1520EA6EBC
:1010D000540EEF6EFD0EDBCFE9FFFE0EDBCFEAFF15
:1010E000E9CF14F0EACF15F0010EDBCFF3FFDB2AD6
:1010F000F3501424E96E000E1520EA6E490EEF6ECF
:10110000FD0EDBCFE9FFFE0EDBCFEAFFE9CF14F0E7
:10111000EACF15F0010EDBCFF3FFDB2AF3501424E6
:10112000E96E000E1520EA6E4F0EEF6EFD0EDBCF5E
:10113000E9FFFE0EDBCFEAFFE9CF14F0EACF15F0AE
:10114000010EDBCFF3FFDB2AF3501424E96E000E0F
:101150001520EA6E4E0EEF6EFD0EDBCFE9FFFE0EA0
:10116000DBCFEAFFE9CF14F0EACF15F0010EDBCFB9
:10117000F3FFDB2AF3501424E96E000E1520EA6E0B
:101180003B0EEF6E17D0FD0EDBCFE9FFFE0EDBCF7F
:10119000EAFFE9CF14F0EACF15F0010EDBCFF3FF41
:1011A000DB2AF3501424E96E000E1520EA6E230E9C
:1011B000EF6E00D0020EDB2ADF50190DF3CFE9FFEE
:1011C000F4CFEAFF170EE926030EEA22E9CF14F066
:1011D000EACF15F0020EDB501424E96E000E152044
:1011E000EA6EEF5030E0DF50190DF3CFE9FFF4CF96
:1011F000EAFF170EE926030EEA22E9CF16F0EACF3E
:1012000017F0020EDB501624E96E000E1720EA6E6E
:10121000EF50E66EFD0EDBCFE9FFFE0EDBCFEAFFFF
:10122000E9CF14F0EACF15F0010EDB501424E96E7B
:10123000000E1520EA6EE552E750EF6E010EDB2A34
:10124000020EDB2AB9D7FD0EDBCFE9FFFE0EDBCFA6
:10125000EAFFE9CF14F0EACF15F0010EDB501424B9
:10126000E96E000E1520EA6EEF6ADFCF63F3FD0E24
:10127000DBCFE9FFFE0EDBCFEAFF200EE926000EF2
:10128000EA2263C3EFFF00D0040EE15C02E2E16AF0
:10129000E552E16EE552E7CFD9FF1200D9CFE6FF64
:1012A000E1CFD9FF040EE126FD0EDBCFE9FFFE0EF4
:1012B000DBCFEAFF200EE926000EEA22EF28DF6EE0
:1012C000010EDB6A020EDB6A030EDF5C01E3DF6AFC
:1012D000FD0EDBCFE9FFFE0EDBCFEAFF200EE92695
:1012E000000EEA22EF68030EDB6AF36EDBCFF4FF39
:1012F000F350F45C02E3F2EF0EF0030E146E14C030
:101300000EF0DFCF09F011EC28F00550DF6EDF5052
:10131000190DF3CFE9FFF4CFEAFF170EE926030E0C
:10132000EA22170EE926000EEA22EF5010E0DF5005
:10133000190DF3CFE9FFF4CFEAFF170EE926030EEC
:10134000EA22180EE926000EEA22EF0404E1030E59
:10135000DB2ADF2ACAD7FD0EDBCFE9FFFE0EDBCF8B
:10136000EAFFE9CF14F0EACF15F0010EDBCFF3FF6F
:10137000DB2AF3500F011424E96E000E1520EA6EEB
:10138000530EEF6EFD0EDBCFE9FFFE0EDBCFEAFF63
:10139000E9CF14F0EACF15F0010EDBCFF3FFDB2A23
:1013A000F3501424E96E000E1520EA6E540EEF6E11
:1013B000FD0EDBCFE9FFFE0EDBCFEAFFE9CF14F035
:1013C000EACF15F0010EDBCFF3FFDB2AF350142434
:1013D000E96E000E1520EA6E4E0EEF6EFD0EDBCFAD
:1013E000E9FFFE0EDBCFEAFFE9CF14F0EACF15F0FC
:1013F000010EDBCFF3FFDB2AF3501424E96E000E5D
:101400001520EA6E3A0EEF6EDF50190DF3CFE9FFAB
:10141000F4CFEAFF170EE926030EEA22E9CF16F011
:10142000EACF17F0020EDBCFF3FFDB2AF3501624CE
:10143000E96E000E1720EA6EEF50E66EFD0EDBCF70
:10144000E9FFFE0EDBCFEAFFE9CF14F0EACF15F09B
:10145000010EDBCFF3FFDB2AF3501424E96E000EFC
:101460001520EA6EE552E750EF6EDF50190DF3CF0D
:10147000E9FFF4CFEAFF170EE926030EEA22E9CFCF
:1014800016F0EACF17F0020EDBCFF3FFDB2AF350A2
:101490001624E96E000E1720EA6EEF50E66EFD0E80
:1014A000DBCFE9FFFE0EDBCFEAFFE9CF14F0EACF96
:1014B00015F0010EDBCFF3FFDB2AF3501424E96EA5
:1014C000000E1520EA6EE552E750EF6EFD0EDBCF01
:1014D000E9FFFE0EDBCFEAFFE9CF14F0EACF15F00B
:1014E000010EDBCFF3FFDB2AF3501424E96E000E6C
:1014F0001520EA6E3B0EEF6EDF50190DF3CFE9FFBA
:10150000F4CFEAFF170EE926030EEA22E9CF14F022
:10151000EACF15F0020EDB501424E96E000E152000
:10152000EA6EEF50360A01E1DCD3030A01E1E6D2AC
:10153000010A01E132D2070A01E17ED1010A01E18B
:101540009ED0030A01E0E4D3FD0EDBCFE9FFFE0EDF
:10155000DBCFEAFFE9CF14F0EACF15F0010EDBCFC5
:10156000F3FFDB2AF3501424E96E000E1520EA6E17
:10157000530EEF6EFD0EDBCFE9FFFE0EDBCFEAFF71
:10158000E9CF14F0EACF15F0010EDBCFF3FFDB2A31
:10159000F3501424E96E000E1520EA6E410EEF6E32
:1015A000FD0EDBCFE9FFFE0EDBCFEAFFE9CF14F043
:1015B000EACF15F0010EDBCFF3FFDB2AF350142442
:1015C000E96E000E1520EA6E460EEF6EFD0EDBCFC3
:1015D000E9FFFE0EDBCFEAFFE9CF14F0EACF15F00A
:1015E000010EDBCFF3FFDB2AF3501424E96E000E6B
:1015F0001520EA6E450EEF6EFD0EDBCFE9FFFE0E05
:10160000DBCFEAFFE9CF14F0EACF15F0010EDBCF14
:10161000F3FFDB2AF3501424E96E000E1520EA6E66
:10162000540EEF6EFD0EDBCFE9FFFE0EDBCFEAFFBF
:10163000E9CF14F0EACF15F0010EDBCFF3FFDB2A80
:10164000F3501424E96E000E1520EA6E790EEF6E49
:10165000FD0EDBCFE9FFFE0EDBCFEAFFE9CF14F092
:10166000EACF15F0010EDBCFF3FFDB2AF350142491
:10167000E96E000E1520EA6E3B0EEF6E49D3FD0EAB
:10168000DBCFE9FFFE0EDBCFEAFFE9CF14F0EACFB4
:1016900015F0010EDBCFF3FFDB2AF3501424E96EC3
:1016A000000E1520EA6E420EEF6EFD0EDBCFE9FF55
:1016B000FE0EDBCFEAFFE9CF14F0EACF15F0010E02
:1016C000DBCFF3FFDB2AF3501424E96E000E152064
:1016D000EA6E520EEF6EFD0EDBCFE9FFFE0EDBCFA2
:1016E000EAFFE9CF14F0EACF15F0010EDBCFF3FFEC
:1016F000DB2AF3501424E96E000E1520EA6E450E25
:10170000EF6EFD0EDBCFE9FFFE0EDBCFEAFFE9CF88
:1017100014F0EACF15F0010EDBCFF3FFDB2AF35014
:101720001424E96E000E1520EA6E410EEF6EFD0ED8
:10173000DBCFE9FFFE0EDBCFEAFFE9CF14F0EACF03
:1017400015F0010EDBCFF3FFDB2AF3501424E96E12
:10175000000E1520EA6E4B0EEF6EFD0EDBCFE9FF9B
:10176000FE0EDBCFEAFFE9CF14F0EACF15F0010E51
:10177000DBCFF3FFDB2AF3501424E96E000E1520B3
:10178000EA6E440EEF6EFD0EDBCFE9FFFE0EDBCFFF
:10179000EAFFE9CF14F0EACF15F0010EDBCFF3FF3B
:1017A000DB2AF3501424E96E000E1520EA6E4F0E6A
:1017B000EF6EFD0EDBCFE9FFFE0EDBCFEAFFE9CFD8
:1017C00014F0EACF15F0010EDBCFF3FFDB2AF35064
:1017D0001424E96E000E1520EA6E570EEF6EFD0E12
:1017E000DBCFE9FFFE0EDBCFEAFFE9CF14F0EACF53
:1017F00015F0010EDBCFF3FFDB2AF3501424E96E62
:10180000000E1520EA6E4E0EEF6EFD0EDBCFE9FFE7
:10181000FE0EDBCFEAFFE9CF14F0EACF15F0010EA0
:10182000DBCFF3FFDB2AF3501424E96E000E152002
:10183000EA6E3B0EEF6E6CD2FD0EDBCFE9FFFE0EC3
:10184000DBCFEAFFE9CF14F0EACF15F0010EDBCFD2
:10185000F3FFDB2AF3501424E96E000E1520EA6E24
:10186000510EEF6EFD0EDBCFE9FFFE0EDBCFEAFF80
:10187000E9CF14F0EACF15F0010EDBCFF3FFDB2A3E
:10188000F3501424E96E000E1520EA6E550EEF6E2B
:10189000FD0EDBCFE9FFFE0EDBCFEAFFE9CF14F050
:1018A000EACF15F0010EDBCFF3FFDB2AF35014244F
:1018B000E96E000E1520EA6E410EEF6EFD0EDBCFD5
:1018C000E9FFFE0EDBCFEAFFE9CF14F0EACF15F017
:1018D000010EDBCFF3FFDB2AF3501424E96E000E78
:1018E0001520EA6E4C0EEF6EFD0EDBCFE9FFFE0E0B
:1018F000DBCFEAFFE9CF14F0EACF15F0010EDBCF22
:10190000F3FFDB2AF3501424E96E000E1520EA6E73
:10191000490EEF6EFD0EDBCFE9FFFE0EDBCFEAFFD7
:10192000E9CF14F0EACF15F0010EDBCFF3FFDB2A8D
:10193000F3501424E96E000E1520EA6E540EEF6E7B
:10194000FD0EDBCFE9FFFE0EDBCFEAFFE9CF14F09F
:10195000EACF15F0010EDBCFF3FFDB2AF35014249E
:10196000E96E000E1520EA6E590EEF6EFD0EDBCF0C
:10197000E9FFFE0EDBCFEAFFE9CF14F0EACF15F066
:10198000010EDBCFF3FFDB2AF3501424E96E000EC7
:101990001520EA6E3B0EEF6EBBD1FD0EDBCFE9FFEB
:1019A000FE0EDBCFEAFFE9CF14F0EACF15F0010E0F
:1019B000DBCFF3FFDB2AF3501424E96E000E152071
:1019C000EA6E4D0EEF6EFD0EDBCFE9FFFE0EDBCFB4
:1019D000EAFFE9CF14F0EACF15F0010EDBCFF3FFF9
:1019E000DB2AF3501424E96E000E1520EA6E450E32
:1019F000EF6EFD0EDBCFE9FFFE0EDBCFEAFFE9CF96
:101A000014F0EACF15F0010EDBCFF3FFDB2AF35021
:101A10001424E96E000E1520EA6E540EEF6EFD0ED2
:101A2000DBCFE9FFFE0EDBCFEAFFE9CF14F0EACF10
:101A300015F0010EDBCFF3FFDB2AF3501424E96E1F
:101A4000000E1520EA6E480EEF6EFD0EDBCFE9FFAB
:101A5000FE0EDBCFEAFFE9CF14F0EACF15F0010E5E
:101A6000DBCFF3FFDB2AF3501424E96E000E1520C0
:101A7000EA6E4F0EEF6EFD0EDBCFE9FFFE0EDBCF01
:101A8000EAFFE9CF14F0EACF15F0010EDBCFF3FF48
:101A9000DB2AF3501424E96E000E1520EA6E440E82
:101AA000EF6EFD0EDBCFE9FFFE0EDBCFEAFFE9CFE5
:101AB00014F0EACF15F0010EDBCFF3FFDB2AF35071
:101AC0001424E96E000E1520EA6E530EEF6EFD0E23
:101AD000DBCFE9FFFE0EDBCFEAFFE9CF14F0EACF60
:101AE00015F0010EDBCFF3FFDB2AF3501424E96E6F
:101AF000000E1520EA6E3B0EEF6E0AD1FD0EDBCF15
:101B0000E9FFFE0EDBCFEAFFE9CF14F0EACF15F0D4
:101B1000010EDBCFF3FFDB2AF3501424E96E000E35
:101B20001520EA6E500EEF6EFD0EDBCFE9FFFE0EC4
:101B3000DBCFEAFFE9CF14F0EACF15F0010EDBCFDF
:101B4000F3FFDB2AF3501424E96E000E1520EA6E31
:101B5000520EEF6EFD0EDBCFE9FFFE0EDBCFEAFF8C
:101B6000E9CF14F0EACF15F0010EDBCFF3FFDB2A4B
:101B7000F3501424E96E000E1520EA6E4F0EEF6E3E
:101B8000FD0EDBCFE9FFFE0EDBCFEAFFE9CF14F05D
:101B9000EACF15F0010EDBCFF3FFDB2AF35014245C
:101BA000E96E000E1520EA6E440EEF6EFD0EDBCFDF
:101BB000E9FFFE0EDBCFEAFFE9CF14F0EACF15F024
:101BC000010EDBCFF3FFDB2AF3501424E96E000E85
:101BD0001520EA6E550EEF6EFD0EDBCFE9FFFE0E0F
:101BE000DBCFEAFFE9CF14F0EACF15F0010EDBCF2F
:101BF000F3FFDB2AF3501424E96E000E1520EA6E81
:101C0000430EEF6EFD0EDBCFE9FFFE0EDBCFEAFFEA
:101C1000E9CF14F0EACF15F0010EDBCFF3FFDB2A9A
:101C2000F3501424E96E000E1520EA6E540EEF6E88
:101C3000FD0EDBCFE9FFFE0EDBCFEAFFE9CF14F0AC
:101C4000EACF15F0010EDBCFF3FFDB2AF3501424AB
:101C5000E96E000E1520EA6E490EEF6EFD0EDBCF29
:101C6000E9FFFE0EDBCFEAFFE9CF14F0EACF15F073
:101C7000010EDBCFF3FFDB2AF3501424E96E000ED4
:101C80001520EA6E4F0EEF6EFD0EDBCFE9FFFE0E64
:101C9000DBCFEAFFE9CF14F0EACF15F0010EDBCF7E
:101CA000F3FFDB2AF3501424E96E000E1520EA6ED0
:101CB0004E0EEF6EFD0EDBCFE9FFFE0EDBCFEAFF2F
:101CC000E9CF14F0EACF15F0010EDBCFF3FFDB2AEA
:101CD000F3501424E96E000E1520EA6E3B0EEF6EF1
:101CE00017D0FD0EDBCFE9FFFE0EDBCFEAFFE9CF19
:101CF00014F0EACF15F0010EDBCFF3FFDB2AF3502F
:101D00001424E96E000E1520EA6E230EEF6E00D04B
:101D1000020EDB2ADF50190DF3CFE9FFF4CFEAFF03
:101D2000170EE926030EEA22E9CF14F0EACF15F0E8
:101D3000020EDB501424E96E000E1520EA6EEF50FF
:101D400030E0DF50190DF3CFE9FFF4CFEAFF170EB3
:101D5000E926030EEA22E9CF16F0EACF17F0020EC9
:101D6000DB501624E96E000E1720EA6EEF50E66E87
:101D7000FD0EDBCFE9FFFE0EDBCFEAFFE9CF14F06B
:101D8000EACF15F0010EDB501424E96E000E152089
:101D9000EA6EE552E750EF6E010EDB2A020EDB2AF7
:101DA000B9D7FD0EDBCFE9FFFE0EDBCFEAFFE9CFAF
:101DB00014F0EACF15F0010EDB501424E96E000E8A
:101DC0001520EA6EEF6ADFCF63F3FD0EDBCFE9FF8C
:101DD000FE0EDBCFEAFF200EE926000EEA2263C3E7
:101DE000EFFF00D0040EE15C02E2E16AE552E16E31
:101DF000E552E7CFD9FF1200D9CFE6FFE1CFD9FFF7
:101E0000070EE126FE0EDB50190DF3CFE9FFF4CFEC
:101E1000EAFF170EE926030EEA22E9CF14F0EACF13
:101E200015F0050E14C0DBFF060E15C0DBFF030125
:101E30000051030A01E190D0020A01E048D1050EE9
:101E4000DBCFE6FF060EDBCFE6FF9DEC14F0E5529C
:101E5000E552E76E020EE7CFDBFF020EDB50FF0814
:101E600001E179D0050EDBCFE6FF060EDBCFE6FF02
:101E70002DEC14F0E552E552150EE66EE66AE66AC0
:101E8000020EDB50190DF3CFE9FFF4CFEAFF170E76
:101E9000E926030EEA22E9CF14F0EACF15F014C0C8
:101EA000E6FF15C0E6FFBFEC24F0166E050EE15EFE
:101EB00016500400020EDB50190DF3CF14F0F4CFCE
:101EC00015F0170E1426030E1522030E14C0DBFFA7
:101ED000040E15C0DBFF010EDB6A190EF36E010E56
:101EE000DBCFF4FFF350F45C25E2010EDB50E76E2C
:101EF000030EDBCFE9FF040EDBCFEAFFE750E92654
:101F0000000EEA22EF50E66E010EDBCFE6FF020E76
:101F1000DB50190DF350E552E724E66EE66AB5ECA6
:101F200026F0E552E552E55209EC00F00400010EFE
:101F3000DB2AD3D7030101510DE10301006BE66AEF
:101F4000E66AE66A010EE66E7DEC14F0E552E552B3
:101F5000E552E552D5D0BCD0050EDBCFE6FF060E2C
:101F6000DBCFE6FF9DEC14F0E552E552E76E020E82
:101F7000E7CFDBFF020EDB50FF0801E1A7D0050E23
:101F8000DBCFE6FF060EDBCFE6FF2DEC14F0E552CB
:101F9000E552150EE66EE66AE66A020EDB50190D92
:101FA000F3CFE9FFF4CFEAFF170EE926030EEA228A
:101FB000E9CF14F0EACF15F014C0E6FF15C0E6FF34
:101FC000BFEC24F0166E050EE15E16500400020E02
:101FD000DB50190DF3CF14F0F4CF15F0170E1426C3
:101FE000030E1522030E14C0DBFF040E15C0DBFF29
:101FF000010EDB6A190EF36E010EDBCFF4FFF35016
:10200000F45C25E2010EDB50E76E030EDBCFE9FF47
:10201000040EDBCFEAFFE750E926000EEA22EF507C
:10202000E66E010EDBCFE6FF020EDB50190DF3501A
:10203000E552E724E66EE66AB5EC26F0E552E55295
:10204000E55209EC00F00400010EDB2AD3D70301AE
:10205000025120E1030101510EE10301006BE66A28
:10206000E66AE66A010EE66E7DEC14F0E552E55292
:10207000E552E5520ED00301010E006FE66AE66AF2
:10208000010EE66EE66A7DEC14F0E552E552E5528B
:10209000E5521BD0030101510CE1E66A010EE66E28
:1020A000E66AE66A7DEC14F0E552E552E552E55247
:1020B0000CD0E66A010EE66E010EE66EE66A7DEC75
:1020C00014F0E552E552E552E5521AD001D000D0A5
:1020D000DF6A030EDF5C14E2DF50190DF3CFE9FF76
:1020E000F4CFEAFF170EE926030EEA22180EE926BE
:1020F000000EEA22EF0402E18C8002D0DF2AE9D749
:10210000070EE15C02E2E16AE552E16EE552E7CFDB
:10211000D9FF1200D9CFE6FFE1CFD9FF050EE126A6
:10212000DF6A030EDF5C37E2DF50190DF3CFE9FF02
:10213000F4CFEAFF170EE926030EEA22170EE9266E
:10214000000EEA22EF5025E0DF50190DF3CFE9FF32
:10215000F4CFEAFF170EE926030EEA22E9CF14F0C6
:10216000EACF15F014C0E6FF15C0E6FFFD0EDBCF89
:10217000E6FFFE0EDBCFE6FFD9EC24F0E552E55298
:10218000E552E552000905E1DFCFE6FF35DEE55215
:10219000DFD0DF2AC6D7DF6A030EDF5C01E3D2D0CF
:1021A000DF50190DF3CFE9FFF4CFEAFF170EE92650
:1021B000030EEA22170EE926000EEA22EF5001E094
:1021C000BFD0DF50190DF3CFE9FFF4CFEAFF170EB0
:1021D000E926030EEA22170EE926000EEA22010E76
:1021E000EF6E060EF66E000EF76E0900F5CF14F0D6
:1021F0000800F5CF15F0DF50190DF3CFE9FFF4CF4C
:10220000EAFF170EE926030EEA22150EE926000E54
:10221000EA2214C0EEFF15C0EDFFDF50190DF3CF19
:10222000E9FFF4CFEAFF170EE926030EEA22180EA3
:10223000E926000EEA22010EEF6EFD0EDBCFE6FF6F
:10224000FE0EDBCFE6FFDF50190DF3CFE9FFF4CF31
:10225000EAFF170EE926030EEA22E9CF14F0EACFCF
:1022600015F014C0E6FF15C0E6FFF9EC24F0E552C6
:10227000E552E552E552DF50190DF3CF14F0F4CFDB
:1022800015F0170E1426030E1522030E14C0DBFFE3
:10229000040E15C0DBFF010EDB6A190EF36E010E92
:1022A000DBCFF4FFF350F45C24E2010EDB50E76E69
:1022B000030EDBCFE9FF040EDBCFEAFFE750E92690
:1022C000000EEA22EF50E66E010EDBCFE6FF190E9C
:1022D000DF02F350E552E724E66EE66AB5EC26F03D
:1022E000E552E552E55209EC00F00400010EDB2A4C
:1022F000D4D70301012B030102510CE1010EE66E5C
:10230000E66A010EE66EE66AF8DAE552E552E55253
:10231000E5520CD0010EE66E010EE66E010EE66E81
:10232000E66AEBDAE552E552E552E552FD0EDBCF07
:10233000E6FFFE0EDBCFE6FF90DAE552E55202D073
:10234000DF2A2AD70301025103E10301010E006FC6
:10235000050EE15C02E2E16AE552E16EE552E7CF8B
:10236000D9FF1200D9CFE6FFE1CFD9FF050EE12654
:10237000020EE76EFD0EDBCFE9FFFE0EDBCFEAFFBC
:10238000E750E926000EEA22EF5030080AE1FD0E80
:10239000DBCFE6FFFE0EDBCFE6FF5FDAE552E5526C
:1023A0008AD1DF6A030EDF5C43E2DF50190DF3CF01
:1023B000E9FFF4CFEAFF170EE926030EEA22170E13
:1023C000E926000EEA22EF5031E0DF50190DF3CF7D
:1023D000E9FFF4CFEAFF170EE926030EEA22E9CF60
:1023E00014F0EACF15F014C0E6FF15C0E6FFFD0EAD
:1023F000DBCFE6FFFE0EDBCFE6FFD9EC24F0E552A3
:10240000E552E552E552000911E1DF50190DF3CF15
:10241000E9FFF4CFEAFF170EE926030EEA22180EB1
:10242000E926000EEA22EF0401E145D1DF2ABAD7FE
:1024300003010051030A01E18AD0020A01E03AD106
:10244000DF6A030EDF5C01E381D0FD0EDBCFE6FF28
:10245000FE0EDBCFE6FF71DAE552E552E76E020EC3
:10246000E7CFDBFF020EDB50FF086EE0150EE66ED5
:10247000E66AE66A020EDB50190DF3CFE9FFF4CFEE
:10248000EAFF170EE926030EEA22E9CF14F0EACF9D
:1024900015F014C0E6FF15C0E6FFBFEC24F0166E81
:1024A000050EE15E16500400020EDB50190DF3CF4D
:1024B00014F0F4CF15F0170E1426030E1522030E98
:1024C00014C0DBFF040E15C0DBFF010EDB6A190E22
:1024D000F36E010EDBCFF4FFF350F45C25E2010E46
:1024E000DB50E76E030EDBCFE9FF040EDBCFEAFF24
:1024F000E750E926000EEA22EF50E66E010EDBCF30
:10250000E6FF020EDB50190DF350E552E724E66EAC
:10251000E66AB5EC26F0E552E552E55209EC00F02A
:102520000400010EDB2AD3D7030101510CE10301A2
:10253000006BE66AE66AE66A010EE66EDED9E552EF
:10254000E552E552E552B7D0DF2A7BD7B4D0DF6A37
:10255000030EDF5C01E3ADD0FD0EDBCFE6FFFE0E28
:10256000DBCFE6FFEAD9E552E552E76E020EE7CF90
:10257000DBFF020EDB50FF0801E199D0150EE66E7D
:10258000E66AE66A020EDB50190DF3CFE9FFF4CFDD
:10259000EAFF170EE926030EEA22E9CF14F0EACF8C
:1025A00015F014C0E6FF15C0E6FFBFEC24F0166E70
:1025B000050EE15E16500400020EDB50190DF3CF3C
:1025C00014F0F4CF15F0170E1426030E1522030E87
:1025D00014C0DBFF040E15C0DBFF010EDB6A190E11
:1025E000F36E010EDBCFF4FFF350F45C25E2010E35
:1025F000DB50E76E030EDBCFE9FF040EDBCFEAFF13
:10260000E750E926000EEA22EF50E66E010EDBCF1E
:10261000E6FF020EDB50190DF350E552E724E66E9B
:10262000E66AB5EC26F0E552E552E55209EC00F019
:102630000400010EDB2AD3D7030102511EE103017E
:1026400001510DE10301006BE66AE66AE66A010EDC
:10265000E66E53D9E552E552E552E5520DD003013D
:10266000010E006FE66AE66A010EE66EE66A45D97B
:10267000E552E552E552E55219D0030101510BE153
:10268000E66A010EE66EE66AE66A37D9E552E55279
:10269000E552E5520BD0E66A010EE66E010EE66EDB
:1026A000E66A2BD9E552E552E552E55204D0DF2A1D
:1026B0004FD701D000D0050EE15C02E2E16AE5529D
:1026C000E16EE552E7CFD9FF1200D9CFE6FFE1CFA7
:1026D000D9FF020EE12603016951685D0BE1FD0E91
:1026E000DBCFE9FFFE0EDBCFEAFFEE6AED6A010EFB
:1026F000DB6A2FD06851150DF3CF14F0F4CF15F02D
:102700006A0E1426030E1522FD0EDBCFE9FFFE0E26
:10271000DBCFEAFF14C0EEFF15C0EDFF6851150DC9
:10272000F3CF14F0F4CF15F06A0E1426030E152221
:1027300014C0E6FF15C0E6FF1AEC25F0E552E5529D
:10274000010EF3CFDBFF0301682B0A0E685D01E386
:10275000686B010EDB50146E020EE15C03E200D0E8
:10276000E16AE552E16E1450E552E7CFD9FF12005D
:10277000D9CFE6FFE1CFD9FF0301650502E1000EE5
:102780000AD0010E656FFE0EDBCF67F3FD0EDBCFC7
:1027900066F3010E00D0E552E7CFD9FF1200D9CF82
:1027A000E6FFE1CFD9FFE652FE0EDB50190DF3CF65
:1027B000E9FFF4CFEAFF170EE926030EEA22180E0E
:1027C000E926000EEA22EF6ADF6A030EDF5C3FE2D1
:1027D000DF50190DF3CFE9FFF4CFEAFF170EE9261A
:1027E000030EEA22180EE926000EEA22EF042DE17C
:1027F000DF50190DF3CFE9FFF4CFEAFF170EE926FA
:10280000030EEA22180EE926000EEA22EF6ADF50D4
:10281000190DF3CFE9FFF4CFEAFF170EE926030EF7
:10282000EA22180EE926000EEA22EF50E66E190E93
:10283000DF02F350180FE66EE66AB5EC26F0E552BB
:10284000E552E55209EC00F00400DF2ABED78C9077
:10285000E552E552E7CFD9FF1200D9CFE6FFE1CF2D
:10286000D9FFE652DF6AFD0EDBCFE9FFFE0EDBCFBC
:10287000EAFFEF5024E0FD0EDBCFE9FFFE0EDBCFD9
:10288000EAFFEF50E66E03016951150DF3CF14F026
:10289000F4CF15F06A0E1426030E1522DF500F0137
:1028A0001424E96E000E1520EA6EE552E750EF6E33
:1028B000DF2AFD0EDB2AFE0E01E3DB2AD4D703015B
:1028C0006951150DF3CF14F0F4CF15F06A0E1426EC
:1028D000030E1522DF500F011424E96E000E15209F
:1028E000EA6EEF6A0301692B0A0E695D01E3696B09
:1028F000E552E552E7CFD9FF1200D9CFE6FFE1CF8D
:10290000D9FFFE0EDB50E8B08A8AE8A08A9AFD0E55
:10291000DB50E8B08A88E8A08A98FC0EDB50E8B06B
:102920008A86E8A08A96FB0EDB50E8B08C80E8A08F
:102930008C90E552E7CFD9FF1200D9CFE6FFE1CF67
:10294000D9FF040EE126DF6A030EDF5C01E388D0C5
:10295000DF50190DF3CFE9FFF4CFEAFF170EE92698
:10296000030EEA22170EE926000EEA22EF5076E067
:10297000DF50190DF3CFE9FFF4CFEAFF170EE92678
:10298000030EEA22E9CF14F0EACF15F014C0E6FFF7
:1029900015C0E6FFFD0EDBCFE6FFFE0EDBCFE6FF48
:1029A000D9EC24F0E552E552E552E552000956E132
:1029B000DF50190DF3CFE9FFF4CFEAFF170EE92638
:1029C000030EEA22170EE926000EEA22EF0403E1C5
:1029D0000301010713D0DF50190DF3CFE9FFF4CF46
:1029E000EAFF170EE926030EEA22170EE926000E6B
:1029F000EA22EF50030802E103010207DF50190D3C
:102A0000F3CFE9FFF4CFEAFF170EE926030EEA221F
:102A1000170EE926000EEA22EF6ADF50190DF3CFF8
:102A2000E9FFF4CFEAFF170EE926030EEA22150E9E
:102A3000E926000EEA22EE6AED6ADF50190DF3CFA7
:102A4000E9FFF4CFEAFF170EE926030EEA22180E7B
:102A5000E926000EEA22EF6ADF5004D0DF2A74D79D
:102A6000FF0E00D0146E040EE15C02E2E16AE55252
:102A7000E16E1450E552E7CFD9FF1200D9CFE6FF3F
:102A8000E1CFD9FF020EE126010EDB6ADF6A030EF9
:102A9000DF5C5BE2DF50190DF3CFE9FFF4CFEAFF13
:102AA000170EE926030EEA22170EE926000EEA2287
:102AB000EF0449E1DF50190DF3CFE9FFF4CFEAFF4E
:102AC000170EE926030EEA22150EE926000EEA2269
:102AD000EE50ED1038E10301022B03010107DF5036
:102AE000190DF3CFE9FFF4CFEAFF170EE926030E25
:102AF000EA22170EE926000EEA22030EEF6EDF50DF
:102B0000190DF3CFE9FFF4CFEAFF170EE926030E04
:102B1000EA22170EE926000EEA22EF50E66E190EA1
:102B2000DF02F350170FE66EE66AB5EC26F0E552C9
:102B3000E552E55209EC00F004000301030E006FBA
:102B4000DE52010EDD6EDF2AA2D7010EDB5000D06F
:102B5000146E020EE15C02E2E16AE552E16E14508D
:102B6000E552E7CFD9FF1200D9CFE6FFE1CFD9FF79
:102B7000E652DF6A030EDF5C41E2DF50190DF3CF4E
:102B8000E9FFF4CFEAFF170EE926030EEA22170E3B
:102B9000E926000EEA22EF502FE0DF50190DF3CFA7
:102BA000E9FFF4CFEAFF170EE926030EEA22E9CF88
:102BB00014F0EACF15F014C0E6FF15C0E6FFFD0ED5
:102BC000DBCFE6FFFE0EDBCFE6FFD9EC24F0E552CB
:102BD000E552E552E55200090FE1DF50190DF3CF40
:102BE000E9FFF4CFEAFF170EE926030EEA22180EDA
:102BF000E926000EEA22EF6ADF2ABCD7E552E55249
:102C0000E7CFD9FF1200D9CFE6FFE1CFD9FFFD0E04
:102C1000DBCFE6FFFE0EDBCFE6FF0D0EE66E030E0A
:102C2000E66ED9EC24F0E552E552E552E552000992
:102C300002E0000E02D0010E00D0E552E7CFD9FF2E
:102C40001200D9CFE6FFE1CFD9FF020EE126030142
:102C5000006B0301016B0301026B0301036B046B47
:102C6000056B066B0301076B086B096B0A6B0301AD
:102C7000636B0301696B0301686BDE6ADD6ADECF9B
:102C800014F0DDCF15F0030E145C000E155870E241
:102C9000DECFE9FFDDCFEAFF190EEA02F3CFEAFF4C
:102CA000190EE902F3CFE9FFF450EA26170EE926E0
:102CB000030EEA22170EE926000EEA22EF6ADECFA3
:102CC000E9FFDDCFEAFF190EEA02F3CFEAFF190EA2
:102CD000E902F3CFE9FFF450EA26170EE926030EC6
:102CE000EA22150EE926000EEA22EE6AED6ADECF30
:102CF000E9FFDDCFEAFF190EEA02F3CFEAFF190E72
:102D0000E902F3CFE9FFF450EA26170EE926030E95
:102D1000EA22180EE926000EEA22EF6A150EE66E88
:102D2000E66AE66ADECFE9FFDDCFEAFF190EEA02C6
:102D3000F3CFEAFF190EE902F3CFE9FFF450EA26D8
:102D4000170EE926030EEA22E9CF14F0EACF15F0B8
:102D500014C0E6FF15C0E6FFBFEC24F0166E050EAA
:102D6000E15E16500400DF2A010E01E3DB2A87D75B
:102D7000DE6ADD6ADECF14F0DDCF15F04B0E145C99
:102D8000000E155812E2E66ADECFE6FFDDCFE6FF61
:102D9000B5EC26F0E552E552E55209EC00F00400EE
:102DA000DF2A010E01E3DB2AE5D7030162050BE10F
:102DB000E66AE66AE66A010EE66E9FDDE552E552D6
:102DC000E552E55209D0E66AE66AE66AE66A95DD0A
:102DD000E552E552E552E552020EE15C02E2E16A9B
:102DE000E552E16EE552E7CFD9FF1200D9CFE6FFF9
:102DF000E1CFD9FF030EE126FD0EDBCFE9FFFE0E8A
:102E0000DBCFEAFF010EEFCFDBFF020EDB6A010E24
:102E1000DB50A00A65E0010A57E0030A23E0220A1A
:102E20000BE0020EDB6AFB0EDBCFE9FFFC0EDBCF13
:102E3000EAFF920EEF6E5FD0F90EDBCFE6FFFA0EDF
:102E4000DBCFE6FF42DCE552E552E76E020EE7CF4C
:102E5000DBFFFB0EDBCFE9FFFC0EDBCFEAFF800ED2
:102E6000EF6E49D0010EE76EFD0EDBCF14F0FE0EC3
:102E7000DBCF15F0E7501426000E152214C0E6FF34
:102E800015C0E6FF71DEE552E552010EE76EFD0E5C
:102E9000DBCF14F0FE0EDBCF15F0E7501426000E4A
:102EA000152214C0E6FF15C0E6FFB2EC11F0E552A2
:102EB000E552FB0EDBCFE9FFFC0EDBCFEAFFA20EF3
:102EC000EF6E020EDB6A17D0BCDEFB0EDBCFE9FF34
:102ED000FC0EDBCFEAFFA10EEF6E020EDB6A0BD019
:102EE000020EDB6AFB0EDBCFE9FFFC0EDBCFEAFF55
:102EF000A00EEF6E00D0020EDB50146E030EE15CEC
:102F000003E200D0E16AE552E16E1450E552E7CFEA
:042F1000D9FF1200D3
:0C2F1400080EE66ED2EC20F0E552010140
:102F2000010E006FE66EB3EC1CF0E55261EC1CF094
:102F300074EF1CF0D9CFE6FFE1CFD9FF060EE126F2
:102F4000DF68D950020FE66E000EDA20E66ED95027
:102F5000030FE66E000EDA20E66E85EC23F0E552F4
:102F6000E552E552E552000901E1C0D2020EDBCF85
:102F7000E6FF030EDBCFE6FFC3DAE552E552DF6E74
:102F8000FF0EDF5C01E1B2D201010051060A01E14E
:102F900095D2030A01E14BD2010A01E131D20C0AB8
:102FA00001E1FAD10B0A01E1C3D1040A01E19DD18B
:102FB000050A01E109D1030A01E189D0010A01E012
:102FC00095D2080EDF5C0FE1235100080BE2DFCF42
:102FD000E6FFE4EC20F0E552010123074751000829
:102FE00001E2470773D00A0EDF5C0FE123510008AE
:102FF0000BE2EEDB010EE66EB3EC1CF0E55261EC89
:103000001CF00101010E006F61D0130EDF5C0BE1BB
:10301000090EE66EB3EC1CF0E55261EC1CF0010108
:10302000050E006F53D00C0EDF5C1CE1690EE66EDE
:10303000010EE66E4EEC09F0E552E552FF0E01017D
:10304000895D0FE0690EE66E010EE66E85EC1CF000
:10305000E552E55261EC1CF074EC1CF00101080E25
:10306000006F34D00B0EDF5C1CE1480EE66E010EE3
:10307000E66EA0EC03F0E552E552FF0E0101685D3B
:103080000FE0480EE66E010EE66E85EC1CF0E55290
:10309000E55261EC1CF074EC1CF00101030E006FB2
:1030A00015D02351EA6A020FE96E010EEA22DFCF42
:1030B000EFFF2351EA6A020FE96E010EEA22EF5098
:1030C000E66EE4EC20F0E5520101232B0FD2080E4E
:1030D000DF5C0BE1010EE66EB3EC1CF0E552F1DBB8
:1030E00074EC1CF00101010E006F300EDF5C12E188
:1030F00023510FE168C1E6FFCFEC13F0E552010E5A
:10310000E66EB3EC1CF0E552DCDBEEDB0101010EF8
:10311000006F59D0DF50330A3BE0010A1EE0030A7A
:1031200001E051D0030EE66EF9EC1CF0E55201010E
:103130004751EA6A260FE96E010EEA22300EEF6E61
:10314000472B4751EA6A260FE96E010EEA22310E3B
:10315000EF6E472B070E006F36D0040EE66EF9ECCB
:103160001CF0E55201014751EA6A260FE96E010E93
:10317000EA22300EEF6E472B4751EA6A260FE96EBE
:10318000010EEA22320EEF6E472B070E006F1BD0A6
:10319000070EE66EF9EC1CF0E55201014751EA6AB0
:1031A000260FE96E010EEA22300EEF6E472B4751D3
:1031B000EA6A260FE96E010EEA22330EEF6E472B04
:1031C000070E006F00D092D1080EDF5C18E123518A
:1031D000000808E2DFCFE6FFE4EC20F0E552010151
:1031E00023070AD0010EE66EBEDBE5526ADB010161
:1031F000020E476F010E006F2469256B75D00A0E11
:10320000DF5C16E12351000810E22CDB260EE66E8F
:10321000010EE66E8AEC10F0E552E552E66AA3DB99
:10322000E5524FDB61DB0101006B2469256B5CD04B
:10323000030EDB50245D3DE1140EF36E020EDBCF76
:10324000F4FFF350F45C1DE223072351EA6A020FF6
:10325000E96E010EEA22DFCFEFFF080EE66EE4EC26
:1032600020F0E55201012351EA6A020FE96E010ED6
:10327000EA22EF50E66EE4EC20F0E5520101232B48
:1032800017D02351EA6A020FE96E010EEA22DFCF5E
:10329000EFFF2351EA6A020FE96E010EEA22EF50B6
:1032A000E66EE4EC20F0E5520101232B2469256B46
:1032B00018D02351EA6A020FE96E010EEA22DFCF2D
:1032C000EFFF2351EA6A020FE96E010EEA22EF5086
:1032D000E66EE4EC20F0E5520101232B030EDBCF78
:1032E00024F1030EDBCF24F101D1080EDF5C0AE1EB
:1032F000010EE66E38DBE552E4DAF6DA0101010E82
:10330000006F15D00A0EDF5C12E1ACDA260EE66E15
:10331000010EE66E8AEC10F0E552E552010EE66E03
:1033200022DBE552CEDAE0DA0101010E006FDED0D9
:10333000080EDF5C08E1E66A16DBE552C2DAD4DA91
:103340000101006B28D00B0EDF5C14E1480EE66E25
:10335000010EE66EA0EC03F0E552E552FF0E01010E
:10336000685D07E0480EE66E010EE66ECEDAE552C5
:10337000E55211D00A0EDF5C0EE168C1E6FFCFEC2A
:1033800013F0E55201016869E66AEDDAE55299DA6F
:10339000ABDA0101006BAAD0080EDF5C08E1E66A37
:1033A000E2DAE5528EDAA0DA0101006B28D00C0EC9
:1033B000DF5C14E1690EE66E010EE66E4EEC09F07C
:1033C000E552E552FF0E0101895D07E0690EE66EE8
:1033D000010EE66E9ADAE552E55211D00A0EDF5C74
:1033E0000EE189C1E6FFFCEC0EF0E55201018969AE
:1033F000E66AB9DAE55265DA77DA0101006B76D070
:10340000080EDF5C07E1E66AAEDAE5525ADA01013E
:10341000006B0CD00A0EDF5C09E121EC16F051DAEA
:1034200063DAE66AA0DAE5520101006B5FD0080EAC
:10343000DF5C08E1E66A97DAE55243DA55DA010122
:10344000006B3BD00A0EDF5C29E1050EDB6A2351DD
:10345000EA6A020FE96E010EEA22EF6A020EE66ED8
:10346000010EE66E03EC16F0E552E552E76E050E2E
:10347000E7CFDBFFDB040AE10A0EE66E74DAE55201
:1034800020DA32DA0101060E006F07D0E66A6BDA45
:10349000E55217DA29DA0101006B0FD02351EA6AED
:1034A000020FE96E010EEA22DFCFEFFF2A0EE66E71
:1034B000E4EC20F0E5520101232B18D0080EDF5C6C
:1034C00008E1E66A50DAE552FCD90EDA0101006B38
:1034D0000CD0300EDF5C09E10B0EE66E44DAE552EB
:1034E000F0D902DA0101040E006F00D0060EE15C93
:1034F00002E2E16AE552E16EE552E7CFD9FF120040
:10350000D9CFE6FFE1CFD9FFE652DF6801010051D4
:10351000060A01E110D1020A01E1F7D0010A01E136
:10352000E5D00D0A01E1C9D00B0A01E1ADD0010AD5
:1035300070E0050A58E0060A34E0010A01E014D1FF
:10354000FE0EDB50050DF3CFF6FFF4CFF7FFD00EE4
:10355000F6264D0EF7220800F550DF6E020E235DB1
:1035600008E3080EDF5C04E00A0EDF5C01E0DF68C0
:1035700017D02351000810E223510EE02A0EDF5C21
:1035800009E00B0EDF5C06E00C0EDF5C03E0130EBF
:10359000DF5C01E1DF6804D02A0EDF5C01E1DF6857
:1035A000E3D0FE0EDB50050DF3CFF6FFF4CFF7FFAF
:1035B000D00EF6264D0EF7220800F550DF6E310EC4
:1035C000DF5C10E0320EDF5C0DE0330EDF5C0AE002
:1035D000300EDF5C07E0080EDF5C04E00A0EDF5C03
:1035E00001E0DF68C1D0FE0EDB50050DF3CFF6FF22
:1035F000F4CFF7FFD00EF6264D0EF7220800F55057
:10360000DF6E0A0EDF5C04E0080EDF5C01E0DF68BD
:10361000ABD0FE0EDB50245D10E1140EF36EFD0EF8
:10362000DBCFF4FFF350F45C06E2252B050E255D9D
:1036300001E3256B01D0256B01D0256BFE0EDB501D
:10364000050DF3CF14F0F4CF15F0D00E14264D0E67
:10365000152225510F011424F66E000E1520F76E69
:103660000800F550DF6E0C0EDF5C03E00B0EDF5C34
:1036700002E1DF6808D00A0EDF5C03E0080EDF5CC1
:1036800002E10101256B70D0FE0EDB50050DF3CF7A
:10369000F6FFF4CFF7FFD00EF6264D0EF722080006
:1036A000F550DF6E0A0EDF5C07E0080EDF5C04E019
:1036B0000B0EDF5C01E0DF6857D0FE0EDB50050D1E
:1036C000F3CFF6FFF4CFF7FFD00EF6264D0EF7221C
:1036D0000800F550DF6E0A0EDF5C07E0080EDF5CC5
:1036E00004E00C0EDF5C01E0DF683ED0FE0EDB5034
:1036F000050DF3CFF6FFF4CFF7FFD00EF6264D0EF3
:10370000F7220800F550DF6E2FD0FE0EDB50050DBE
:10371000F3CFF6FFF4CFF7FFD00EF6264D0EF722CB
:103720000800F550DF6E0A0EDF5C04E0080EDF5C77
:1037300001E0DF6819D0FE0EDB50050DF3CFF6FF78
:10374000F4CFF7FFD00EF6264D0EF7220800F55005
:10375000DF6E300EDF5C07E0080EDF5C04E00A0E6F
:10376000DF5C01E0DF6800D0DF5000D0E552E552B9
:10377000E7CFD9FF1200D9CFE6FFE1CFD9FFFE0E88
:10378000DB50010A17E0030A0BE0020A01E01CD03B
:10379000E66AE9D8E55295D8A7D80101006B14D0A4
:1037A000080EE66EE0D8E5528CD89ED80101020ED4
:1037B000006F0AD0010EE66ED6D8E55282D894D8B2
:1037C0000101010E006F00D0E552E7CFD9FF1200D2
:1037D000D9CFE6FFE1CFD9FF020EE126010EDB6A69
:1037E0000101230513E14751EA6A260FE96E010E34
:1037F000EA22300EEF6E472B4751EA6A260FE96E38
:10380000010EEA2202C1EFFF472B12D04751EA6AAC
:10381000260FE96E010EEA2202C1EFFF472B475146
:10382000EA6A260FE96E010EEA2203C1EFFF472B79
:10383000300E275D146E300E265D0A0DF3501424F1
:10384000E76E010EE7CFDBFFDB50146E020EE15C8A
:1038500003E200D0E16AE552E16E1450E552E7CF91
:10386000D9FF1200D9CFE6FFE1CFD9FFE652DF6AD8
:1038700001012351DF5C14E2DF50EA6A020FE96EB6
:10388000010EEA22EF50E66E4751EA6A260FE96E12
:10389000010EEA22E552E750EF6E472BDF2AE8D708
:1038A0004751EA6A260FE96E010EEA22EF6A472BBA
:1038B000200E475D01E3476BE552E552E7CFD9FFA4
:1038C0001200200EE66EE66AE66A020EE66E010E51
:1038D000E66EBFEC24F0146E050EE15E145001019B
:1038E000236B256B24691200200EE66EE66AE66AF9
:1038F000260EE66E010EE66EBFEC24F0146E050E89
:10390000E15E14500101476B1200D9CFE6FFE1CF11
:10391000D9FFE652DDEC20F0DF6ADF50E76EFD0EE6
:10392000DBCFE9FFFE0EDBCFEAFFE750E926000E12
:10393000EA22EF5013E0DF50E76EFD0EDBCFE9FF28
:10394000FE0EDBCFEAFFE750E926000EEA22EF5039
:10395000E66EE4EC20F0E552DF2ADFD7E552E552CF
:10396000E7CFD9FF1200D9CFE6FFE1CFD9FF030E91
:10397000E126FE0EEA6ADB34FE0BEA36E96E720ED1
:10398000E926020EEA22010EEECFDBFF020EEDCF9A
:10399000DBFFDDEC20F0DF6ADF50E76E010EDBCFEE
:1039A000F6FF020EDBCFF7FFE750F626000EF722F8
:1039B0000800F55014E0DF50E76E010EDBCFF6FF94
:1039C000020EDBCFF7FFE750F626000EF7220800C5
:1039D000F550E66EE4EC20F0E552DF2ADDD7030E69
:1039E000E15C02E2E16AE552E16EE552E7CFD9FF20
:1039F0001200D9CFE6FFE1CFD9FF030EE126FE0E7C
:103A0000EA6ADB34FE0BEA36E96E720EE926020E34
:103A1000EA22010EEECFDBFF020EEDCFDBFFDF6A05
:103A2000DF50E76E010EDBCFF6FF020EDBCFF7FFB4
:103A3000E750F626000EF7220800F55014E0DF509C
:103A4000E76E010EDBCFF6FF020EDBCFF7FFE7508C
:103A5000F626000EF7220800F550E66EE4EC20F0A2
:103A6000E552DF2ADDD7030EE15C02E2E16AE552AE
:0A3A7000E16EE552E7CFD9FF120026
:063A7A00D9CFE6FFE1CF09
:103A8000D9FFFE0EDBCF01F2FD0EDBCF02F2FC0E02
:103A9000DBCF03F2FB0EDBCF04F2F90EDBCF45F2F6
:103AA000FA0EDBCF46F204D8E552E7CFD9FF120079
:103AB000B00EE66EFE0EE66EE66AE66A38EC22F0BE
:103AC000E552E552E552E5520201416B426B010EAF
:103AD000006F436B050E446F4BC247F24CC248F275
:103AE0004DC249F24EC24AF200C24FF21200020128
:103AF000416B426B010E006F436B050E446F4BC26E
:103B000047F24CC248F24DC249F24EC24AF200C2DC
:103B10004FF21200D9CFE6FFE1CFD9FF060EE12622
:103B2000DF6AB2EC25F006C04BF207C04CF208C0C9
:103B30004DF209C04EF2470EE96E020EEA6EEE50EB
:103B400002014B1909E1EE504C1906E1EE504D19F6
:103B500003E1EE504E1900E113E000514F5D08E122
:103B6000020E005D05E14407445102E1A1DFBED031
:103B70004BC247F24CC248F24DC249F24EC24AF221
:103B80000051030A01E1ADD0010A16E0030A02E088
:103B9000AEDFAAD0F9EC22F0000901E1A7D016ECC3
:103BA00023F0DF6E02010151DF5C05E1416B020E83
:103BB000006F050E446F98D0F9EC22F0000901E186
:103BC00095D016EC23F0DF6E02010251DF5C74E148
:103BD000020EDB6A030EDB68D950030FE66E000E9F
:103BE000DA20E66E8DD8E552E552E76E020EE7CF99
:103BF000DBFFDB50020A54E0030A05E0010A01E0A2
:103C000057D075DF73D002014551461147E0D950B6
:103C1000040FE66E000EDA20E66E430EE66E020E2C
:103C2000E66E070EE66E020EE66E05D046C2FAFF9D
:103C300002014551F96EFADF146E060EE15E145072
:103C40000201426FFA0E236F422B43C224F2422B31
:103C5000DE52020EDD6E4251F36E010EDBCFF4FF39
:103C6000F350F45C1AE2040EDBCFE9FF050EDBCF64
:103C7000EAFFEF50E66E010EDB50EA6A230FE96EB1
:103C8000020EEA22E552E750EF6E040EDB2A050E23
:103C900001E3DB2A010EDB2ADED701D028DF08D0C2
:103CA0000201FA0E236F422B43C224F2422B00D0B2
:103CB0000201030E006F14D04151412BEA6A050F37
:103CC000E96E020EEA22DFCFEFFF1E0E415D08E330
:103CD000FA0E236F422B900E246F422B030E006FBF
:103CE00003D05AD804DF00D000C24FF2060EE15CC8
:103CF00002E2E16AE552E16EE552E7CFD9FF120038
:103D0000D9CFE6FFE1CFD9FF020EE126020141053E
:103D1000EA6A050FE96E020EEA22EFCFDFFF010E1D
:103D2000DB6AFA0E055D05E0FF0E055D02E0000EA0
:103D300027D04105E66E050EE66E020EE66E9BD8B4
:103D4000E552E552E552E76E010EE7CFDBFFDB50AF
:103D5000DF5C0CE1020141074151EA6A050FE96E9F
:103D6000020EEA22EF6A010E0BD00AD0FD0EDBCF65
:103D7000E9FFFE0EDBCFEAFF910EEF6E000E00D0E2
:103D8000146E020EE15C02E2E16AE552E16E14504B
:103D9000E552E7CFD9FF1200D9CFE6FFE1CFD9FF37
:103DA000020EE126DF6A010EDB6A42C2E6FF230E45
:103DB000E66E020EE66E5FD8E552E552E552DF6E22
:103DC00003C2E6FF9CEC22F0E552010EDB6A020121
:103DD0004251F36E010EDBCFF4FFF350F45C0FE2BF
:103DE000010EDB50EA6A230FE96E020EEA22EF5061
:103DF000E66E9CEC22F0E552010EDB2AE8D7DFCF1D
:103E0000E6FF9CEC22F0E55204C2E6FF9CEC22F0B7
:103E1000E552B8EC22F00400020EE15C02E2E16A35
:103E2000E552E16EE552E7CFD9FF1200D9CFE6FFA8
:103E3000E1CFD9FFFD0EDBCFF6FFFE0EDBCFF7FFA4
:103E40000800F55012E0FD0EDBCFF6FFFE0EDBCFD3
:103E5000F7FF0800F550E66E9CEC22F0E552FD0EEF
:103E6000DB2AFE0E01E3DB2AE5D7B8EC22F0E552AF
:103E7000E7CFD9FF1200D9CFE6FFE1CFD9FF030E7C
:103E8000E126DF6A010EDB6AFC0EDB50F36E010EE9
:103E9000DBCFF4FFF350F45C12E2010EDB50E76E6F
:103EA000FD0EDBCFE9FFFE0EDBCFEAFFE750E92690
:103EB000000EEA22EF50DF1A010EDB2AE5D7DF50B1
:103EC000146E030EE15C03E200D0E16AE552E16E9C
:0A3ED0001450E552E7CFD9FF1200AD
:063EDA00D9CFE6FFE1CFA5
:103EE000D9FF030EE126300EF36E010EF3CFDBFF98
:103EF000750EF36E020EF3CFDBFF010EDF6EDF04F3
:103F000025E105DA000000008396838400000000AC
:103F10008382000000008350800B01E0010EDF6E01
:103F200083928382000000008392010EDB06020E62
:103F300001E2DB06D950010FE96EDACFEAFFEE505D
:103F4000ED1003E1ECD9FF0E04D0D9D7E8D9000E6B
:103F500000D0146E030EE15C02E2E16AE552E16E0C
:103F60001450E552E7CFD9FF1200D9CFE6FFE1CFD9
:103F7000D9FF839683940000FE0EDB50F00B146E85
:103F80000F0E8C1414108C6E000083820000000051
:103F90008392E552E7CFD9FF1200D9CFE6FFE1CFF8
:103FA000D9FF9BDF839683940000FE0EDB50F00B5D
:103FB000146E0F0E8C1414108C6E0000838200009F
:103FC00000008392FE0EDB38F00BF00B146E0F0E28
:103FD0008C1414108C6E0000838200000000839209
:103FE000E552E7CFD9FF1200D9CFE6FFE1CFD9FFE5
:103FF00074DF838683940000FE0EDB50F00B146E9A
:104000000F0E8C1414108C6E0000838200000000D0
:104010008392FE0EDB38F00BF00B146E0F0E8C1437
:1040200014108C6E00008382000000008392E55221
:10403000E7CFD9FF1200D9CFE6FFE1CFD9FF0B0EB2
:10404000E1266DD9280EF36E010EF3CFDBFF020ED1
:10405000DB6A010EDBCF14F0DB06020EDBCF15F0BE
:1040600001E2DB061450151006E0080EE66E16ECB1
:1040700000F0E552EED7300EE66E77DFE5520A0E1D
:10408000F36E030EF3CFDBFF040EDB6A030EDBCF10
:1040900014F0DB06040EDBCF15F001E2DB06145052
:1040A000151006E0080EE66E16EC00F0E552EED7AD
:1040B000300EE66E5ADFE5520A0EF36E050EF3CFB0
:1040C000DBFF060EDB6A050EDBCF14F0DB06060E07
:1040D000DBCF15F001E2DB061450151006E0080EE8
:1040E000E66E16EC00F0E552EED7300EE66E3DDFE0
:1040F000E5520A0EF36E070EF3CFDBFF080EDB6A04
:10410000070EDBCF14F0DB06080EDBCF15F001E263
:10411000DB061450151006E0080EE66E16EC00F0F3
:10412000E552EED7200EE66E20DFE5520A0EF36E62
:10413000090EF3CFDBFF0A0EDB6A090EDBCF14F0AA
:10414000DB060A0EDBCF15F001E2DB06145015107A
:1041500006E0080EE66E16EC00F0E552EED7280EEB
:10416000E66E1BDFE552B9DEDF6EDF5010E10F0EA9
:10417000E66E13DFE552010EE66E0FDFE552040E28
:10418000E66E0BDFE552060EE66E07DFE5520B0E1C
:10419000E15C03E200D0E16AE552E16EE552E7CF6F
:1041A000D9FF1200D9CFE6FFE1CFD9FFFE0EDBCF5A
:1041B00051F2E552E7CFD9FF1200010EE66EEDDEB7
:1041C000E5520201506B1200D9CFE6FFE1CFD9FFD3
:1041D000E652FE0EDB500201515D23E1505101E138
:1041E00037D0100E505D0EE1800EE66ED6DEE55241
:1041F000DF6A100EDF5C06E2140EE66ECEDEE552DC
:10420000DF2AF7D7100EE66EC8DEE552200EE66E06
:10421000EBDEE552100EE66EC0DEE55202015007FD
:1042200017D0100E505D05E1C00EE66EB6DEE55209
:1042300008D0200E505D05E3506B020EE66EADDE39
:10424000E552FE0EDBCFE6FFCFDEE5520201502B3A
:10425000E552E552E7CFD9FF1200EDDE010EE66E22
:104260009CDEE5520201506B1200D9CFE6FFE1CF90
:10427000D9FFE652010EE66E90DEE552DF6A100EBF
:10428000DF5C1CE2FD0EDBCFE9FFFE0EDBCFEAFFB9
:10429000EF50E66EDF50EA6A520FE96E020EEA2234
:1042A000E552E750EF6EFD0EDBCFE9FFDB2AFE0E95
:1042B000DBCFEAFF01E3DB2ADF2AE1D7C00EE66E9F
:1042C0006CDEE552DF6A100EDF5C1CE2FD0EDBCF18
:1042D000E9FFFE0EDBCFEAFFEF50E66EDF50EA6A41
:1042E000520FE96E020EEA22E552E750EF6EFD0E24
:1042F000DBCFE9FFDB2AFE0EDBCFEAFF01E3DB2A9F
:10430000DF2AE1D7E552E552E7CFD9FF1200958EBB
:10431000958C958A95889592959495961200959E80
:0E432000959C959A9598959295949596120075
:02432E00DACFE4
:10433000E4FFE2CFDAFFE9CFE4FFEACFE4FFF6CF14
:10434000E4FFF7CFE4FFF5CFE4FFF3CFE4FFF4CFD2
:10435000E4FFFACFE4FF00EE00F0140EE80403E3FC
:10436000EECFE4FFFBD700EE14F0040EE80403E305
:10437000EECFE4FFFBD7E652D9CFE6FFE1CFD9FF7E
:10438000E6527EEC27F0DF6E0101C951C92BEA6AC3
:10439000CC0FE96E010EEA22DFCFEFFF1E0EC95DE2
:1043A00001E3C96BCB2B9E9AE552E552E7CFD9FFCB
:1043B000E55200EE17F0040EE80403E3E5CFEDFF4D
:1043C000FBD700EE13F0140EE80403E3E5CFEDFF96
:1043D000FBD7E5CFFAFFE5CFF4FFE5CFF3FFE5CF5D
:1043E000F5FFE5CFF7FFE5CFF6FFE5CFEAFFE5CF35
:1043F000E9FFE5CFDAFF1100DACFE4FFE2CFDAFF21
:10440000E9CFE4FFEACFE4FFE652D9CFE6FFE1CF00
:10441000D9FFE6520101AA5104E1ACA2FED7AC9A41
:104420001BD0A951EA6AAB0FE96E010EEA22EFCF69
:10443000DFFFDF50AD6EA92B1E0EA95D01E3A96B56
:10444000000EE76EAA19E8AE02D0AA3503D0E750F5
:10445000D880AA5501E2AA07E552E552E7CFD9FF75
:10446000E552E5CFEAFFE5CFE9FFE5CFDAFF11003E
:10447000D9CFE6FFE1CFD9FFE6527C0EDF6ED950EF
:10448000FB0FE96EFF0EDA20EA6EEE2A000EEE2236
:10449000EE22EE22D950FB0FE96EFF0EDA20EA6E13
:1044A000040EE76ED890EF36010EEB36020EEB36B7
:1044B000030EEB36E706F6E1146A480E156EE80EB9
:1044C000166E010E176E14C006F015C007F016C068
:1044D00008F017C009F0FB0EDBCF0BF0FC0EDBCFB2
:1044E0000CF0FD0EDBCF0DF0FE0EDBCF0EF038EC46
:1044F00027F0FB0E06C0DBFFFC0E07C0DBFFFD0E46
:1045000008C0DBFFFE0E09C0DBFFFB0EDBCFE6FFC2
:10451000FC0EDBCFE6FFDFCFE6FF31EC26F0E55205
:10452000E552E552D08EAC8AAC9EF28C9F8AE55261
:10453000E552E7CFD9FF1200D9CFE6FFE1CFD9FF8F
:10454000ACA2FED70101A851A82BEA6AAB0FE96E15
:10455000010EEA22FE0EDBCFEFFFAA2B1E0EA85D96
:1045600001E3A86B010E00D0E552E7CFD9FF12009E
:10457000D9CFE6FFE1CFD9FF020EE126000E0101FF
:10458000E76EAA19E8AE02D0AA3503D0E750D8806A
:10459000AA5523E2A951EA6AAB0FE96E010EEA229D
:1045A000010EEFCFDBFFACA2FED7010EDB50AD6EEC
:1045B000ACA2FED70101A92B1E0EA95D01E3A96BD8
:1045C000000EE76EAA19E8AE02D0AA3503D0E75074
:1045D000D880AA5501E2AA07D1D7146E020EE15C79
:1045E00002E2E16AE552E16E1450E552E7CFD9FFED
:1045F0001200D9CFE6FFE1CFD9FFE652DF6A9D9ADC
:10460000000E0101E76ECB19E8AE02D0CB3503D026
:10461000E750D880CB5502E2010EDF6E9D8ADF5055
:1046200000D0E552E552E7CFD9FF1200D9CFE6FF1F
:10463000E1CFD9FFE6529D9A0101CA51CA2BEA6A1D
:10464000CC0FE96E010EEA22EFCFDFFF1E0ECA5D2E
:1046500001E3CA6B000EE76ECB19E8AE02D0CB3592
:1046600003D0E750D880CB5501E2CB079D8ADF50BD
:0C46700000D0E552E552E7CFD9FF120060
:04467C000101F86BD5
:10468000F96B1200D9CFE6FFE1CFD9FF020EE12688
:104690000101FA2BD9CFE6FFDACFE6FF81D8E55248
:1046A000E552000901E127D00101F851F95D02E16D
:1046B000F96BF86BF951E96EEA6AD890E936EA3697
:1046C000EA0EE926010EEA22DFCFEFFFF951E96E8B
:1046D000EA6AD890E936EA36EA0EE926010EEA22BD
:1046E000010EE926000EEA22FAC1EFFF060EF95D7F
:1046F00001E2F92BFA6B020EE15C02E2E16AE5529B
:10470000E16EE552E7CFD9FF1200D9CFE6FFE1CF46
:10471000D9FF0101F951F85D31E2F851E96EEA6A19
:10472000D890E936EA36EA0EE926010EEA22EF5081
:10473000E66EFD0EDBCFE9FFFE0EDBCFEAFFE552B2
:10474000E750EF6EF851E96EEA6AD890E936EA363A
:10475000EA0EE926010EEA22010EE926000EEA22FF
:10476000EF50E66EFB0EDBCFE9FFFC0EDBCFEAFF7E
:10477000E552E750EF6EF82B010E02D0000E00D08C
:10478000E552E7CFD9FF12000101FD5100D0120020
:104790000101FE5100D012000101F96BF86B12000B
:1047A000D9CFE6FFE1CFD9FFE652DF68809881B428
:1047B00002D0010EDF6E80B202D0040EDF6E80B434
:1047C00002D0070EDF6E80B602D00A0EDF6E808840
:1047D000FF0EDF5C12E1809A81B402D0020EDF6E20
:1047E00080B202D0050EDF6E80B402D0080EDF6EFC
:1047F00080B602D00B0EDF6E808AFF0EDF5C12E106
:10480000849081B402D0030EDF6E80B202D0060E17
:10481000DF6E80B402D0090EDF6E80B602D00C0EBF
:10482000DF6E8480FF0EDF5C0BE1829484B203D0E4
:104830000D0EDF6E04D082B202D00E0EDF6E8284C7
:10484000FF0EDF5C06E10101FB690101FC69000E5E
:1048500018D00101FB51DF5C10E10101FC51DF5C6C
:104860000CE0FD0EDBCFE9FFFE0EDBCFEAFFDFCF72
:10487000EFFFDFCFFCF1010E04D0DFCFFBF1000E24
:0C48800000D0E552E552E7CFD9FF12004E
:04488C00DACFE4FF9C
:10489000E2CFDAFFE9CFE4FFEACFE4FFF6CFE4FFAF
:1048A000F7CFE4FFF5CFE4FFF3CFE4FFF4CFE4FF6D
:1048B000FACFE4FF00EE00F0140EE80403E3EECFBD
:1048C000E4FFFBD700EE14F0040EE80403E3EECFA0
:1048D000E4FFFBD7E652F2940101982B000E9923D6
:1048E0009A2B9B239C2B9D239E2B9F23A02BA123A4
:1048F000A207A35BA33504E2A2510008000EA35552
:1049000008E3A42B000EA523A623A723C80EA26F9D
:10491000A36B8C518D1107E005D08DC1FAFF010109
:104920008C51F96EFADF8AC1E6FF8BC1E6FFBBEC62
:1049300027F0E552E552E55200EE17F0040EE804C8
:1049400003E3E5CFEDFFFBD700EE13F0140EE80410
:1049500003E3E5CFEDFFFBD7E5CFFAFFE5CFF4FFAB
:10496000E5CFF3FFE5CFF5FFE5CFF7FFE5CFF6FFA6
:0E497000E5CFEAFFE5CFE9FFE5CFDAFF110062
:02497E00FE0E2B
:10498000E3CFE9FFFF0EE3CFEAFFE9CFF3FFEACF82
:10499000F4FFFB0EE35003E1FC0EE35009E0FB0ED5
:1049A000E30602E2FC0EE306FD0EE350EE6EF1D7E5
:1049B0001200D9CFE6FFDACFE6FFFA0EE3CFD9FF38
:1049C000FB0EE3CFDAFFFC0EE3CFE9FFFD0EE3CFF2
:1049D000EAFFDE50EF5C02E1EE66FBD7F36EFF0EFE
:1049E000E3CFDAFFE552FF0EE3CFD9FFE552F350F4
:1049F0001200D9CFE6FFDACFE6FFFA0EE3CFD9FFF8
:104A0000FB0EE3CFDAFFFC0EE3CFE9FFFD0EE3CFB1
:104A1000EAFFE9CFF3FFEACFF4FFDECFEFFFEE6668
:104A2000FCD7FF0EE3CFDAFFE552FF0EE3CFD9FF4D
:104A3000E5521200FE0EE3CFE9FFFF0EE3CFEAFFDF
:104A4000F36AF46AEE5203E0F34AF42AFBD7120049
:104A5000D9CFE6FFE1CFD9FF090EE126070EDB6AC9
:104A6000080EDB6A13EC27F02DEC21F0000EE66E49
:104A7000E66ADF0EE66EB10EE66E8EEC25F0E552CC
:104A8000E552E552E5523EEC23F071EC00F08AEC81
:104A900017F011EC00F00101640E985D000E9959B9
:104AA00005E322EC28F00101986B996B0101080ED7
:104AB0009A5D000E9B5905E342EC23F001019A6BCD
:104AC0009B6B0101020E9C5D000E9D5905E38AEC73
:104AD0001DF001019C6B9D6B0101F40E9E5D010EAA
:104AE0009F5905E3B0EC02F001019E6B9F6B010141
:104AF000280EA05D000EA15905E39AEC17F0010104
:104B0000A06BA16B0400C7D7090EE15C02E2E16A69
:0C4B1000E552E16EE552E7CFD9FF12003C
:044B1C00D9CFE6FF08
:104B2000E1CFD9FF9F0EE66ED7EC27F0E552FD0EE0
:104B3000DBCF8AF1FE0EDBCF8BF1FB0EDBCF8CF1EE
:104B4000FC0EDBCF8DF1F194FD0EDBCFE6FFFE0E08
:104B5000DBCFE6FFBBEC27F0E552E552E552E7CFAD
:104B6000D9FF1200D9CFE6FFE1CFD9FF040EE1262D
:104B7000F29AA4C1DFFF010EA5C1DBFF020EA6C1A0
:104B8000DBFF030EA7C1DBFFF28ADECF06F0DECF2C
:104B900007F0DECF08F0DDCF09F0DD52DD52040E64
:104BA000E15C03E200D0E16AE552E16EE552E7CF55
:104BB000D9FF1200F29E0101A46BA56BA66BA76B37
:044BC000F28E12005F
:0C4BC400500EF66E000EF76E000EF86E3C
:104BD00002010900F5508F6F0900F550906F03E155
:104BE0008F6701D03DD00900F5508A6F0900F5505C
:104BF0008B6F0900F5508C6F09000900F550E96EC4
:104C00000900F550EA6E090009000900F5508D6FA2
:104C10000900F5508E6F09000900F6CF91F2F7CF29
:104C200092F2F8CF93F28AC2F6FF8BC2F7FF8CC2E2
:104C3000F8FF02018D5302E18E5307E00900F550A1
:104C4000EE6E8D07F8E28E07F9D791C2F6FF92C299
:104C5000F7FF93C2F8FF02018F07000E905BBFD7EA
:024C6000120040
:0E4C6200D9CFE6FFDACFE6FFE1CFD9FFE2CFF0
:104C7000DAFFAC6AAB6AFD0EDBB0AC88DBA202D017
:104C8000AC8CAB8CDBB4AC8EDBA602D0AB8801D095
:104C9000AB8ADBB8AC849E98DBBAAB86DBAC02D0C7
:104CA0009D8A01D09D9A9E9ADBAE02D09D8801D04C
:104CB0009D98FB0EDB50AF6EFB0EFC0EDBCF15F0AC
:104CC00015C014F0156A1450B06EAC8AAB8E949C6B
:104CD000948EAC50100B04E0AC50800B01E1948C2E
:0C4CE000E552E5CFDAFFE7CFD9FF120064
:044CEC00434C4541AF
:104CF00052204953535545530041444D494E20419C
:104D0000435449564954593A0050415353574F520E
:104D1000443A0050415254204E4F3A004D415445C0
:104D20005249414C2053484F52544147450050523C
:104D30004F44554354494F4E004D4554484F4453FA
:104D4000005155414C49545900425245414B444F42
:104D5000574E005341464554590049535355453A1F
:0A4D60000053544154494F4E3A00ED
:064D6A00D9CFE6FFDACF0D
:104D7000E6FFE1CFD9FFE2CFDAFFE652DF6AFF0EAE
:104D8000E76EFC0EDBCF14F0E75014161450A96E3A
:104D9000FB0EDB50A86EA69EA69CA684F250800B4C
:104DA00001E0010EDF6EF29E550EA76EAA0EA76EF1
:104DB000A682A6B2FED7DF50E8B0F28EE8A0F29E3F
:104DC000A694E552E552E5CFDAFFE7CFD9FF12000E
:104DD000FFFFFFFF003131313100324142430033E8
:104DE000444546003447484900354A4B4C00364D4F
:104DF0004E4F0037505253003854555600395758CB
:104E00005900080808080030515A2D000A0A0A0AF9
:104E10000000000000000000000000000000000092
:054E200000000000008D
:0A4E2600C26A0F0EC16E700ED312A7
:104E30009B8C96948D94949C948E959E959C959A1B
:104E40009598959295949596938492829284928661
:104E50009298929A96909682948294948294959045
:104E60008C90939A8A9A93968A9693988A9812002D
:104E7000056A046A036A026A200EE76ED890063655
:104E800007360836093602360336043605360B5027
:104E9000025C0C5003580D5004580E50055809E39D
:104EA0000B50025E0C50035A0D50045A0E50055A16
:084EB000062AE72EE4D71200E8
:084EB800D9CFE6FFDACFE6FFD7
:104EC000E1CFD9FFE2CFDAFFFF0EE76EFC0EDBCFBA
:104ED00014F0FD0EDBCF15F0E7501416156A1450D0
:104EE000A96EA69CA69EA68000000000A85000D037
:0C4EF000E552E5CFDAFFE7CFD9FF120052
:044EFC00D9CFE6FF25
:104F0000DACFE6FFE1CFD9FFE2CFDAFFE652F20EC9
:104F10000101FF17ABAC03D0FF91ABB0FF81ABB485
:104F2000FF85ABB2FF87AE50DF6EDF50E552E55232
:0A4F3000E5CFDAFFE7CFD9FF12004A
:064F3A0008C012F008504F
:104F40000D02F4CF07F0F3CF06F009500E02F4CFB4
:104F500009F0F3CF08F00D02F3500726F4500822B1
:104F6000E86A092212500E02F3500726F450082274
:064F7000E86A0922000CB2
:0A4F7600D9CFE6FFDACFE6FFE1CF66
:104F8000D9FFE2CFDAFFE652E652FC0EDBCFDEFFBE
:104F9000DBCFDDFF010EDB50D76EDF50D66EE55262
:0E4FA000E552E552E5CFDAFFE7CFD9FF120068
:024FAE00D9CF59
:104FB000E6FFDACFE6FFE1CFD9FFE2CFDAFFFD0E61
:104FC000DB507F0BD56ED76AD66AF294FD0EDBAE4E
:104FD00002D0F28A01D0F29AD58EE552E5CFDAFFFF
:064FE000E7CFD9FF12002B
:0A4FE600000EF36E00EE00F0060E60
:104FF00001D81200EA6002D0EE6AFCD7F350E960F3
:065000001200EE6AFCD76D
:0A50060010EE80F020EE80F0F86A52
:10501000019CE2EC25F026EC00F028EC25F0FBD713
:0250200012007C
:0E502200056A080EE76ED890093605360E5066
:0E503000055C02E3056E092AE72EF7D7120091
:02503E0002016D
:10504000A06B12000201A00503E1A06B8D9403D0B8
:08505000010EA06F8D84120017
:08505800202020202020202050
:0950600020202020202020200047
:075069000000000000000040
:105070000000000000000000000000000000000030
:105080000000000000000000000000000000000020
:105090000000000000000000000000000000000010
:0B50A000000000000000000000000005
:0550AB00000000000000
:1050B00000000000000000000000000000000000F0
:1050C000000000000000000000000000000000FFE1
:1050D00000000000000000000000000000000000D0
:1050E00000000000000000000000000000000000C0
:1050F00000000000000000000000000000000000B0
:10510000000000000000000000000000000000009F
:10511000000000FF00000000000000000000000090
:10512000000000000000000000000000000000007F
:0551300000000000FF7B
:0B51350000000000000000000000006F
:1051400000000000000000000000000000C8000097
:035150000000005C
:0D515300000000000000000000000000004F
:10516000000000000000000000000000000000003F
:10517000000000000000000000000000000000002F
:10518000000000000000000000000000000000001F
:10519000000000000000000000000000000000000F
:1051A00000000000000000000000000000000000FF
:1051B00000000000000000000000000000000000EF
:1051C00000000000000000000000000000000000DF
:1051D00000000000000000000000000000000000CF
:1051E00000000000000000000000000000000000BF
:1051F00000000000000000000000000000000000AF
:10520000000000000000000000000000000000009E
:10521000000000000000000000000000000000008E
:0A5220000000000000000000000084
:06522A000000000000007E
:10523000000000000000000000000000000000006E
:0C52400000000000000000000000000062
:04524C00000000005E
:10525000000000000000000000000000000000004E
:10526000000000000000000000000000000000003E
:10527000000000000000000000000000000000002E
:10528000000000000000000000000000000000001E
:0C52900000000000000000000000000012
:04529C00000000000E
:1052A00000000000000000000000000000000000FE
:1052B00000000000000000000000000000000000EE
:1052C00000000000000000000000000000000000DE
:1052D00000000000000000000000000000000000CE
:1052E00000000000000000000000000000000000BE
:1052F00000000000000000000000000000000000AE
:0153000000AC
:095301004944454F4E4943530055
:03530A00FF0000A1
:02530D00FFFFA0
:01530F00613C
:105310004D5A4D534D494D414D394D2E4D1C4D1358
:075320004D094DF94CEC4C66
:020000040030CA
:0100010008F6
:010002001BE2
:0100030012EA
:010005008179
:010006008178
:010008000FE8
:01000900C036
:01000A000FE6
:01000B00E014
:01000C000FE4
:01000D0040B2
:00000001FF
