:020000040000FA
:06000000EFEF06F0120014
:020006001200E6
:080008009EAA02D046EF02F0AF
:020010001200DC
:08001800F2A402D069EF04F02C
:0C0020001200D08E9F8AF28EF28C12002B
:04002C00000EF36E61
:1000300000EE00F0060E01D81200EA6002D0EE6A6F
:0C004000FCD7F350E9601200EE6AFCD718
:01004C0000B3
:02004D00FFFFB3
:100050000800D90E000092020000280000004D00A8
:100060000000CD020000020000004C000000D102A0
:10007000000001000000D00E0000C40200000900D2
:100080000000C40E0000000300000C000000740E0D
:1000900000000002000050000000560E00000001A9
:1000A00000001E000000140E00005002000042007C
:0200B00000004E
:0E00B200D9CFE6FFE1CFD9FFFE0EDBCF01F282
:1000C000FD0EDBCF02F2FC0EDBCF03F2FB0EDBCF2B
:1000D00004F2F90EDBCF45F2FA0EDBCF46F204D87C
:1000E000E552E7CFD9FF1200800EE66E250EE66ED0
:1000F000E66AE66AE7EC02F0E552E552E552E552BF
:100100000201416B426B010E006F436B050E446FA1
:100110004BC247F24CC248F24DC249F24EC24AF2BB
:1001200000C24FF212000201416B426B010E006FE0
:10013000436B050E446F4BC247F24CC248F24DC2AE
:1001400049F24EC24AF200C24FF21200D9CFE6FF86
:10015000E1CFD9FF060EE126DF6A5CEC05F004C0B2
:100160004BF205C04CF206C04DF207C04EF2470EEE
:10017000E96E020EEA6EEE5002014B1909E1EE50F3
:100180004C1906E1EE504D1903E1EE504E1900E115
:1001900013E000514F5D08E1020E005D05E14407E8
:1001A000445102E1A1DFBDD04BC247F24CC248F23C
:1001B0004DC249F24EC24AF20051030A01E1ACD0ED
:1001C000010A16E0030A02E0AEDFA9D0A8EC03F0B2
:1001D000000901E1A6D0C5EC03F0DF6E0201015178
:1001E000DF5C05E1416B020E006F050E446F97D096
:1001F000A8EC03F0000901E194D0C5EC03F0DF6E38
:1002000002014151412BEA6A050FE96E020EEA2212
:10021000DFCFEFFF1E0E415D08E3FA0E236F422B86
:10022000900E246F422B030E006F060E415D73E3A8
:10023000020EDB6A030EDB68D950030FE66E000E78
:10024000DA20E66E78D8E552E552E76E020EE7CF87
:10025000DBFFDB50020A54E0030A05E0010A01E07B
:1002600057D061DF5ED002014551461147E0D950B9
:10027000040FE66E000EDA20E66E430EE66E020E06
:10028000E66E050EE66E020EE66E05D046C2FAFF79
:1002900002014551F96EFADF106E060EE15E105054
:1002A0000201426FFA0E236F422B43C224F2422B0B
:1002B000DE52020EDD6E4251F36E010EDBCFF4FF13
:1002C000F350F45C1AE2040EDBCFE9FF050EDBCF3E
:1002D000EAFFEF50E66E010EDB50EA6A230FE96E8B
:1002E000020EEA22E552E750EF6E040EDB2A050EFD
:1002F00001E3DB2A010EDB2ADED701D014DF08D0B0
:100300000201FA0E236F422B43C224F2422B00D08B
:100310000201030E006F03D018D805DF00D000C221
:100320004FF2060EE15C02E2E16AE552E16EE5524F
:10033000E7CFD9FF1200D9CFE6FFE1CFD9FF010EF9
:1003400000D0E552E7CFD9FF1200D9CFE6FFE1CFC9
:10035000D9FF020EE126DF6A010EDB6A42C2E6FF28
:10036000230EE66E020EE66E5FD8E552E552E552C8
:10037000DF6E03C2E6FF4BEC03F0E552010EDB6AD1
:1003800002014251F36E010EDBCFF4FFF350F45C37
:100390000FE2010EDB50EA6A230FE96E020EEA2239
:1003A000EF50E66E4BEC03F0E552010EDB2AE8D786
:1003B000DFCFE6FF4BEC03F0E55204C2E6FF4BEC67
:1003C00003F0E55267EC03F00400020EE15C02E288
:1003D000E16AE552E16EE552E7CFD9FF1200D9CFCD
:1003E000E6FFE1CFD9FFFD0EDBCFF6FFFE0EDBCF40
:1003F000F7FF0800F55012E0FD0EDBCFF6FFFE0E12
:10040000DBCFF7FF0800F550E66E4BEC03F0E5524A
:10041000FD0EDB2AFE0E01E3DB2AE5D767EC03F0D5
:10042000E552E7CFD9FF1200D9CFE6FFE1CFD9FFE0
:10043000030EE126DF6A010EDB6AFC0EDB50F36E71
:10044000010EDBCFF4FFF350F45C12E2010EDB503F
:10045000E76EFD0EDBCFE9FFFE0EDBCFEAFFE750D4
:10046000E926000EEA22EF50DF1A010EDB2AE5D75B
:10047000DF50106E030EE15C03E200D0E16AE5524A
:0C048000E16E1050E552E7CFD9FF1200EA
:04048C00DACFE4FFE0
:10049000E2CFDAFFE9CFE4FFEACFE4FFF6CFE4FFF3
:1004A000F7CFE4FFF5CFE4FFF3CFE4FFF4CFE4FFB1
:1004B000FACFE4FF00EE00F0100EE80403E3EECF05
:1004C000E4FFFBD700EE10F0040EE80403E3EECFE8
:1004D000E4FFFBD7E652D9CFE6FFE1CFD9FFE652E2
:1004E00085EC06F0DF6E02017151712BEA6A740F20
:1004F000E96E020EEA22DFCFEFFF1E0E715D01E30F
:10050000716B732B9E9AE552E552E7CFD9FFE55206
:1005100000EE13F0040EE80403E3E5CFEDFFFBD794
:1005200000EE0FF0100EE80403E3E5CFEDFFFBD77C
:10053000E5CFFAFFE5CFF4FFE5CFF3FFE5CFF5FF19
:10054000E5CFF7FFE5CFF6FFE5CFEAFFE5CFE9FF1F
:10055000E5CFDAFF1100DACFE4FFE2CFDAFFE9CF2F
:10056000E4FFEACFE4FFE652D9CFE6FFE1CFD9FFBF
:10057000E6520201525104E1ACA2FED7AC9A1BD064
:100580005151EA6A530FE96E020EEA22EFCFDFFF04
:10059000DF50AD6E512B1E0E515D01E3516B000E0D
:1005A000E76E5219E8AE02D0523503D0E750D8803A
:1005B000525501E25207E552E552E7CFD9FFE55225
:1005C000E5CFEAFFE5CFE9FFE5CFDAFF1100D9CFAC
:1005D000E6FFE1CFD9FFE6527C0EDF6ED950FB0F6C
:1005E000E96EFF0EDA20EA6EEE2A000EEE22EE220F
:1005F000EE22D950FB0FE96EFF0EDA20EA6E040EF0
:10060000E76ED890EF36010EEB36020EEB36030E96
:10061000EB36E706F6E1106A480E116EE80E126E30
:10062000010E136E10C004F011C005F012C006F0E8
:1006300013C007F0FB0EDBCF09F0FC0EDBCF0AF096
:10064000FD0EDBCF0BF0FE0EDBCF0CF061EC06F005
:10065000FB0E04C0DBFFFC0E05C0DBFFFD0E06C079
:10066000DBFFFE0E07C0DBFFFB0EDBCFE6FFFC0E61
:10067000DBCFE6FFDFCFE6FFDBEC05F0E552E5522E
:10068000E552D08EAC8AAC9EF28C9F8AE552E55240
:10069000E7CFD9FF1200D9CFE6FFE1CFD9FFACA257
:1006A000FED702015051502BEA6A530FE96E020E39
:1006B000EA22FE0EDBCFEFFF522B1E0E505D01E350
:1006C000506B010E00D0E552E7CFD9FF1200D9CF11
:1006D000E6FFE1CFD9FF020EE126000E0201E76E30
:1006E0005219E8AE02D0523503D0E750D8805255A7
:1006F00023E25151EA6A530FE96E020EEA22010E1B
:10070000EFCFDBFFACA2FED7010EDB50AD6EACA28B
:10071000FED70201512B1E0E515D01E3516B000EFD
:10072000E76E5219E8AE02D0523503D0E750D880B8
:10073000525501E25207D1D7106E020EE15C02E27F
:10074000E16AE552E16E1050E552E7CFD9FF1200A1
:10075000D9CFE6FFE1CFD9FFE652DF6A9D9A000EBE
:100760000201E76E7319E8AE02D0733503D0E7508B
:10077000D880735502E2010EDF6E9D8ADF5000D0F3
:10078000E552E552E7CFD9FF1200D9CFE6FFE1CF1E
:10079000D9FFE6529D9A02017251722BEA6A740FD8
:1007A000E96E020EEA22EFCFDFFF1E0E725D01E35B
:1007B000726B000EE76E7319E8AE02D0733503D08A
:1007C000E750D880735501E273079D8ADF5000D04F
:0A07D000E552E552E7CFD9FF120011
:0607DA001200D9CFE6FF7A
:1007E000E1CFD9FF030EE126010EF36E020EF3CF27
:1007F000DBFF03010B0543E1DF6A040EDF5C1FE250
:10080000DF500A0DF3CF10F0F4CF11F0920E102646
:10081000020E112210C0E6FF11C0E6FF000EE66EC8
:10082000030EE66E20EC06F0E552E552E552E55285
:10083000000903E1DF2803010A6FDF2ADED7030185
:100840000A51040A16E0070A0FE0010A08E0030A49
:1008500001E014D089828994899689980FD0899271
:100860008984899689980AD08992899489868998F9
:1008700005D0899289948996898800D00B6B030EE4
:10088000E15C02E2E16AE552E16EE552E7CFD9FFB1
:100890001200D9CFE6FFE1CFD9FFE652DF6AFD0EA5
:1008A000DBCFE6FFFE0EDBCFE6FF000EE66E030EAB
:1008B000E66E40EC06F0E552E552E552E5520301E2
:1008C000010E0B6FDF5000D0E552E552E7CFD9FFA4
:0208D000120014
:0E08D200DACFE4FFE2CFDAFFE9CFE4FFEACFAE
:1008E000E4FFF6CFE4FFF7CFE4FFF5CFE4FFF3CF6B
:1008F000E4FFF4CFE4FFFACFE4FF00EE00F0100EC7
:10090000E80403E3EECFE4FFFBD700EE10F0040EA3
:10091000E80403E3EECFE4FFFBD7E652F2940101D3
:100920000E2B000E0F23122B1323142B1523180745
:10093000195B193504E218510008000E195508E337
:100940001A2B000E1B231C231D23C80E186F196BB6
:100950000251031107E005D003C1FAFF0101025162
:10096000F96EFADF00C1E6FF01C1E6FFA4EC06F074
:10097000E552E552E55200EE13F0040EE80403E3FD
:10098000E5CFEDFFFBD700EE0FF0100EE80403E318
:10099000E5CFEDFFFBD7E5CFFAFFE5CFF4FFE5CFDD
:1009A000F3FFE5CFF5FFE5CFF7FFE5CFF6FFE5CFA6
:0C09B000EAFFE5CFE9FFE5CFDAFF110018
:0409BC00D9CFE6FFAA
:1009C000E1CFD9FF090EE126070EDB6A080EDB6ACC
:1009D000DCEC06F0000EE66EE66ADF0EE66EB10EA7
:1009E000E66E38EC05F0E552E552E552E552920E1E
:1009F000E66E080EE66EDD0EE66ECC0EE66EBB0E03
:100A0000E66E410EE66E59EC00F0106E060EE15EE9
:100A1000105011EC00F00101FA0E0E5D000E0F599E
:100A200005E300EC07F001010E6B0F6B0101020EF4
:100A3000125D000E135905E3A6EC00F00101126BE4
:100A4000136B0101050E145D000E155905E3EEEC64
:100A500003F00101146B156B0400DDD7090EE15C96
:100A600002E2E16AE552E16EE552E7CFD9FF1200FA
:100A7000D9CFE6FFE1CFD9FF9F0EE66EC0EC06F0BE
:100A8000E552FD0EDBCF00F1FE0EDBCF01F1FB0ED8
:100A9000DBCF02F1FC0EDBCF03F1F194FD0EDBCFD7
:100AA000E6FFFE0EDBCFE6FFA4EC06F0E552E552D2
:100AB000E552E7CFD9FF1200D9CFE6FFE1CFD9FF4A
:100AC000040EE126F29A1AC1DFFF010E1BC1DBFF03
:100AD000020E1CC1DBFF030E1DC1DBFFF28ADECF5D
:100AE00004F0DECF05F0DECF06F0DDCF07F0DD52FB
:100AF000DD52040EE15C03E200D0E16AE552E16EF2
:100B0000E552E7CFD9FF1200F29E01011A6B1B6B71
:080B10001C6B1D6BF28E12003C
:080B1800500EF66E000EF76EA0
:100B2000000EF86E02010900F550BF6F0900F55084
:100B3000C06F03E1BF6701D03DD00900F550BA6F27
:100B40000900F550BB6F0900F550BC6F09000900A2
:100B5000F550E96E0900F550EA6E09000900090038
:100B6000F550BD6F0900F550BE6F09000900F6CFC2
:100B7000C1F2F7CFC2F2F8CFC3F2BAC2F6FFBBC2DE
:100B8000F7FFBCC2F8FF0201BD5302E1BE5307E00C
:100B90000900F550EE6EBD07F8E2BE07F9D7C1C2F5
:100BA000F6FFC2C2F7FFC3C2F8FF0201BF07000E83
:060BB000C05BBFD712007C
:0A0BB600D9CFE6FFDACFE6FFE1CF6A
:100BC000D9FFE2CFDAFFAC6AAB6AFD0EDBB0AC88CE
:100BD000DBA202D0AC8CAB8CDBB4AC8EDBA602D03B
:100BE000AB8801D0AB8ADBB8AC849E98DBBAAB860D
:100BF000DBAC02D09D8A01D09D9A9E9ADBAE02D0DA
:100C00009D8801D09D98FB0EDB50AF6EFB0EFC0E55
:100C1000DBCF11F011C010F0116A1050B06EAC8A29
:100C2000AB8E949C948EAC50100B04E0AC50800BB7
:100C300001E1948CE552E5CFDAFFE7CFD9FF12004E
:100C4000D9CFE6FFDACFE6FFFA0EE3CFD9FFFB0EEE
:100C5000E3CFDAFFFC0EE3CFE9FFFD0EE3CFEAFFBF
:100C6000DE50EF5C02E1EE66FBD7F36EFF0EE3CFE2
:100C7000DAFFE552FF0EE3CFD9FFE552F350120041
:100C8000D9CFE6FFDACFE6FFFA0EE3CFD9FFFB0EAE
:100C9000E3CFDAFFFC0EE3CFE9FFFD0EE3CFEAFF7F
:100CA000E9CFF3FFEACFF4FFDECFEFFFEE66FCD72C
:100CB000FF0EE3CFDAFFE552FF0EE3CFD9FFE55297
:020CC000120020
:0E0CC200036A026A016A006A200EE76ED8908B
:100CD0000436053606360736003601360236033648
:100CE0000950005C0A5001580B5002580C50035830
:100CF00009E30950005E0A50015A0B50025A0C5089
:0A0D0000035A042AE72EE4D712007C
:060D0A00D9CFE6FFDACFAD
:100D1000E6FFE1CFD9FFE2CFDAFFE652F20E0201A1
:100D2000CF17ABAC03D0CF91ABB0CF81ABB4CF85F5
:100D3000ABB2CF87AE50DF6EDF50E552E552E5CF64
:080D4000DAFFE7CFD9FF120032
:080D4800D9CFE6FFDACFE6FF88
:100D5000E1CFD9FFE2CFDAFFE652E652FC0EDBCF5D
:100D6000DEFFDBCFDDFF010EDB50D76EDF50D66E2E
:100D7000E552E552E552E5CFDAFFE7CFD9FF1200A1
:100D8000D9CFE6FFDACFE6FFE1CFD9FFE2CFDAFF36
:100D9000FD0EDB507F0BD56ED76AD66AF294FD0E3E
:100DA000DBAE02D0F28A01D0F29AD58EE552E5CFC1
:080DB000DAFFE7CFD9FF1200C2
:080DB800C26A0F0EC16E700E3D
:100DC000D3129B8C96908D90949C948E9292899243
:0E0DD00092968996929489949298899812002E
:020DDE0010EE15
:100DE00080F020EE80F0F86A0F9C8CEC05F003ECAC
:0A0DF00000F0DEEC04F0FBD7120067
:060DFA000201D16B1200A2
:100E00000201D10503E1D16B8D9003D0010ED16FAA
:040E10008D801200BF
:0C0E1400000000000000000000000000D2
:100E200000000000000000000000000000000000C2
:100E300000000000000000000000000000000000B2
:100E400000000000000000000000000000000000A2
:060E50000000000000009C
:0A0E56000000000000000000000092
:100E60000000000000000000000000000000C800BA
:040E7000000000007E
:0C0E740000000000000000000000000072
:100E80000000000000000000000000000000000062
:100E90000000000000000000000000000000000052
:100EA0000000000000000000000000000000000042
:100EB0000000000000000000000000000000000032
:040EC000000000002E
:0C0EC40000000000000000000000000022
:090ED0004944454F4E49435300CB
:070ED90036444535383700AF
:100EE000000000323739304238000000003135331D
:100EF000373338000000003139393338350000000D
:010F000000F0
:020000040030CA
:0100010008F6
:010002001BE2
:0100030012EA
:010005008179
:010006008178
:010008000FE8
:01000900C036
:01000A000FE6
:01000B00E014
:01000C000FE4
:01000D0040B2
:00000001FF
