:020000040000FA
:0600000019EF07F01200E9
:020006001200E6
:080008009EAA02D04EEF02F0A7
:020010001200DC
:08001800F2A402D0B4EF04F0E1
:0C0020001200D08E9F8AF28EF28C12002B
:04002C00000EF36E61
:1000300000EE00F0060E01D81200EA6002D0EE6A6F
:0C004000FCD7F350E9601200EE6AFCD718
:01004C0000B3
:02004D00FFFFB3
:100050000800480F0000920200001E0000004D0042
:100060000000C3020000020000004C000000C702B4
:100070000000010000003F0F0000BA02000009006C
:1000800000002E0F00000003000011000000DE0E33
:1000900000000002000050000000C00E000000013F
:1000A00000001E0000007E0E000050020000420012
:0200B00000004E
:0E00B200D9CFE6FFE1CFD9FFFE0EDBCF01F282
:1000C000FD0EDBCF02F2FC0EDBCF03F2FB0EDBCF2B
:1000D00004F2F90EDBCF45F2FA0EDBCF46F204D87C
:1000E000E552E7CFD9FF1200E66A4B0EE66EE66AEC
:1000F000E66AEFEC02F0E552E552E552E552020104
:10010000416B426B010E006F436B050E446F4BC297
:1001100047F24CC248F24DC249F24EC24AF200C206
:100120004FF212000201416B426B010E006F436BF4
:10013000050E446F4BC247F24CC248F24DC249F221
:100140004EC24AF200C24FF21200D9CFE6FFE1CF11
:10015000D9FF060EE126DF6AA7EC05F004C04BF2DA
:1001600005C04CF206C04DF207C04EF2ABA207D05C
:10017000AB98080EE66E34EC07F0E552AB88470EFC
:10018000E96E020EEA6EEE5002014B1909E1EE50E3
:100190004C1906E1EE504D1903E1EE504E1900E105
:1001A00013E000514F5D08E1020E005D05E14407D8
:1001B000445102E199DFBDD04BC247F24CC248F234
:1001C0004DC249F24EC24AF20051030A01E1ACD0DD
:1001D000010A16E0030A02E0A5DFA9D0B0EC03F0A3
:1001E000000901E1A6D0CDEC03F0DF6E0201015160
:1001F000DF5C05E1416B020E006F050E446F97D086
:10020000B0EC03F0000901E194D0CDEC03F0DF6E17
:1002100002014151412BEA6A050FE96E020EEA2202
:10022000DFCFEFFF1E0E415D08E3FA0E236F422B76
:10023000900E246F422B030E006F060E415D73E398
:10024000020EDB6A030EDB68D950030FE66E000E68
:10025000DA20E66E78D8E552E552E76E020EE7CF77
:10026000DBFFDB50020A54E0030A05E0010A01E06B
:1002700057D058DF5ED002014551461147E0D950B2
:10028000040FE66E000EDA20E66E430EE66E020EF6
:10029000E66E050EE66E020EE66E05D046C2FAFF69
:1002A00002014551F96EFADF106E060EE15E105044
:1002B0000201426FFA0E236F422B43C224F2422BFB
:1002C000DE52020EDD6E4251F36E010EDBCFF4FF03
:1002D000F350F45C1AE2040EDBCFE9FF050EDBCF2E
:1002E000EAFFEF50E66E010EDB50EA6A230FE96E7B
:1002F000020EEA22E552E750EF6E040EDB2A050EED
:1003000001E3DB2A010EDB2ADED701D00BDF08D0A8
:100310000201FA0E236F422B43C224F2422B00D07B
:100320000201030E006F03D018D8FCDE00D000C21B
:100330004FF2060EE15C02E2E16AE552E16EE5523F
:10034000E7CFD9FF1200D9CFE6FFE1CFD9FF010EE9
:1003500000D0E552E7CFD9FF1200D9CFE6FFE1CFB9
:10036000D9FF020EE126DF6A010EDB6A42C2E6FF18
:10037000230EE66E020EE66E5FD8E552E552E552B8
:10038000DF6E03C2E6FF53EC03F0E552010EDB6AB9
:1003900002014251F36E010EDBCFF4FFF350F45C27
:1003A0000FE2010EDB50EA6A230FE96E020EEA2229
:1003B000EF50E66E53EC03F0E552010EDB2AE8D76E
:1003C000DFCFE6FF53EC03F0E55204C2E6FF53EC47
:1003D00003F0E5526FEC03F00400020EE15C02E270
:1003E000E16AE552E16EE552E7CFD9FF1200D9CFBD
:1003F000E6FFE1CFD9FFFD0EDBCFF6FFFE0EDBCF30
:10040000F7FF0800F55012E0FD0EDBCFF6FFFE0E01
:10041000DBCFF7FF0800F550E66E53EC03F0E55232
:10042000FD0EDB2AFE0E01E3DB2AE5D76FEC03F0BD
:10043000E552E7CFD9FF1200D9CFE6FFE1CFD9FFD0
:10044000030EE126DF6A010EDB6AFC0EDB50F36E61
:10045000010EDBCFF4FFF350F45C12E2010EDB502F
:10046000E76EFD0EDBCFE9FFFE0EDBCFEAFFE750C4
:10047000E926000EEA22EF50DF1A010EDB2AE5D74B
:10048000DF50106E030EE15C03E200D0E16AE5523A
:0C049000E16E1050E552E7CFD9FF1200DA
:04049C00DACFE4FFD0
:1004A000E2CFDAFFE9CFE4FFEACFE4FFF6CFE4FFE3
:1004B000F7CFE4FFF5CFE4FFF3CFE4FFF4CFE4FFA1
:1004C000FACFE4FF00EE00F0100EE80403E3EECFF5
:1004D000E4FFFBD700EE10F0040EE80403E3EECFD8
:1004E000E4FFFBD7E652D9CFE6FFE1CFD9FFE652D2
:1004F000AFEC06F0DF6E02017151712BEA6A740FE6
:10050000E96E020EEA22DFCFEFFF1E0E715D01E3FE
:10051000716B732B9E9AE552E552E7CFD9FFE552F6
:1005200000EE13F0040EE80403E3E5CFEDFFFBD784
:1005300000EE0FF0100EE80403E3E5CFEDFFFBD76C
:10054000E5CFFAFFE5CFF4FFE5CFF3FFE5CFF5FF09
:10055000E5CFF7FFE5CFF6FFE5CFEAFFE5CFE9FF0F
:10056000E5CFDAFF1100DACFE4FFE2CFDAFFE9CF1F
:10057000E4FFEACFE4FFE652D9CFE6FFE1CFD9FFAF
:10058000E6520201525104E1ACA2FED7AC9A1BD054
:100590005151EA6A530FE96E020EEA22EFCFDFFFF4
:1005A000DF50AD6E512B1E0E515D01E3516B000EFD
:1005B000E76E5219E8AE02D0523503D0E750D8802A
:1005C000525501E25207E552E552E7CFD9FFE55215
:1005D000E5CFEAFFE5CFE9FFE5CFDAFF1100D9CF9C
:1005E000E6FFE1CFD9FFE6527C0EDF6ED950FB0F5C
:1005F000E96EFF0EDA20EA6EEE2A000EEE22EE22FF
:10060000EE22D950FB0FE96EFF0EDA20EA6E040EDF
:10061000E76ED890EF36010EEB36020EEB36030E86
:10062000EB36E706F6E1106A480E116EE80E126E20
:10063000010E136E10C004F011C005F012C006F0D8
:1006400013C007F0FB0EDBCF09F0FC0EDBCF0AF086
:10065000FD0EDBCF0BF0FE0EDBCF0CF06BEC06F0EB
:10066000FB0E04C0DBFFFC0E05C0DBFFFD0E06C069
:10067000DBFFFE0E07C0DBFFFB0EDBCFE6FFFC0E51
:10068000DBCFE6FFDFCFE6FF26EC06F0E552E552D2
:10069000E552D08EAC8AAC9EF28C9F8AE552E55230
:1006A000E7CFD9FF1200D9CFE6FFE1CFD9FFACA247
:1006B000FED702015051502BEA6A530FE96E020E29
:1006C000EA22FE0EDBCFEFFF522B1E0E505D01E340
:1006D000506B010E00D0E552E7CFD9FF1200D9CF01
:1006E000E6FFE1CFD9FF020EE126000E0201E76E20
:1006F0005219E8AE02D0523503D0E750D880525597
:1007000023E25151EA6A530FE96E020EEA22010E0A
:10071000EFCFDBFFACA2FED7010EDB50AD6EACA27B
:10072000FED70201512B1E0E515D01E3516B000EED
:10073000E76E5219E8AE02D0523503D0E750D880A8
:10074000525501E25207D1D7106E020EE15C02E26F
:10075000E16AE552E16E1050E552E7CFD9FF120091
:10076000D9CFE6FFE1CFD9FFE652DF6A9D9A000EAE
:100770000201E76E7319E8AE02D0733503D0E7507B
:10078000D880735502E2010EDF6E9D8ADF5000D0E3
:10079000E552E552E7CFD9FF1200D9CFE6FFE1CF0E
:1007A000D9FFE6529D9A02017251722BEA6A740FC8
:1007B000E96E020EEA22EFCFDFFF1E0E725D01E34B
:1007C000726B000EE76E7319E8AE02D0733503D07A
:1007D000E750D880735501E273079D8ADF5000D03F
:0A07E000E552E552E7CFD9FF120001
:0607EA001200D9CFE6FF6A
:1007F000E1CFD9FF030EE126020EDB6803010B05F2
:100800000AE10F2B000E1023140E0F5D500E10592D
:1008100002E389920B6B0A0557E1DF6A030EDF5C86
:100820001FE2DF500A0DF3CF10F0F4CF11F0920E5B
:100830001026020E112210C0E6FF11C0E6FF000EC6
:10084000E66E030EE66E8FEC06F0E552E552E552D9
:10085000E552000903E1020EDFCFDBFFDF2ADED71E
:10086000020EDB50020A23E0030A15E0010A07E04A
:1008700089820301010E0B6F0F6B106B24D00301F3
:100880000C5104E18988010E0C6F04D00C0502E1C3
:1008900089980C6B18D003010D5104E18986010E73
:1008A0000D6F04D00D0502E189960D6B0CD003018C
:1008B0000E5104E18984010E0E6F04D00E0502E191
:1008C00089940E6B00D00A6B030EE15C02E2E16AD0
:1008D000E552E16EE552E7CFD9FF1200D9CFE6FF2E
:1008E000E1CFD9FF020EE126DF6A010EDB6A060EB8
:1008F000F36E010EDBCFF4FFF350F45C1CE2010E4B
:10090000DB50E76EFD0EDBCFE9FFFE0EDBCFEAFF2B
:10091000E750E926000EEA22EF50E66E010EDB50AA
:10092000EA6A000FE96E030EEA22E552E750EF6E25
:10093000010EDB2ADCD7010EDB50EA6A000FE96EFC
:10094000030EEA22EF6A0301010E0A6FDF50106EF8
:10095000020EE15C03E200D0E16AE552E16E105064
:08096000E552E7CFD9FF1200B8
:08096800DACFE4FFE2CFDAFF71
:10097000E9CFE4FFEACFE4FFF6CFE4FFF7CFE4FFEF
:10098000F5CFE4FFF3CFE4FFF4CFE4FFFACFE4FFC9
:1009900000EE00F0100EE80403E3EECFE4FFFBD717
:1009A00000EE10F0040EE80403E3EECFE4FFFBD703
:1009B000E652F29401010E2B000E0F23122B13238B
:1009C000142B15231807195B193504E21851000878
:1009D000000E195508E31A2B000E1B231C231D23A0
:1009E000C80E186F196B0251031107E005D003C13F
:1009F000FAFF01010251F96EFADF00C1E6FF01C101
:100A0000E6FFCEEC06F0E552E552E55200EE13F0BB
:100A1000040EE80403E3E5CFEDFFFBD700EE0FF093
:100A2000100EE80403E3E5CFEDFFFBD7E5CFFAFFB7
:100A3000E5CFF4FFE5CFF3FFE5CFF5FFE5CFF7FF17
:100A4000E5CFF6FFE5CFEAFFE5CFE9FFE5CFDAFF37
:020A5000110093
:0E0A5200D9CFE6FFE1CFD9FF090EE126070E4E
:100A6000DB6A080EDB6A06EC07F0000EE66EE66A4B
:100A7000DF0EE66EB10EE66E83EC05F0E552E55250
:100A8000E552E552DC0EE66E080EE66EDD0EE66E11
:100A9000CC0EE66EBB0EE66E410EE66E59EC00F033
:100AA000106E060EE15E105011EC00F00101FA0E1E
:100AB0000E5D000E0F5905E32AEC07F001010E6BE5
:100AC0000F6B0101020E125D000E135905E3A5EC38
:100AD00000F00101126B136B0101050E145D000E95
:100AE000155905E3F6EC03F00101146B156B0400D6
:100AF000DDD7090EE15C02E2E16AE552E16EE55202
:060B0000E7CFD9FF12004F
:0A0B0600D9CFE6FFE1CFD9FF9F0E23
:100B1000E66EEAEC06F0E552FD0EDBCF00F1FE0ECC
:100B2000DBCF01F1FB0EDBCF02F1FC0EDBCF03F1DB
:100B3000F194FD0EDBCFE6FFFE0EDBCFE6FFCEEC41
:100B400006F0E552E552E552E7CFD9FF1200D9CFC2
:100B5000E6FFE1CFD9FF040EE126F29A1AC1DFFFCA
:100B6000010E1BC1DBFF020E1CC1DBFF030E1DC10A
:100B7000DBFFF28ADECF04F0DECF05F0DECF06F039
:100B8000DDCF07F0DD52DD52040EE15C03E200D060
:100B9000E16AE552E16EE552E7CFD9FF1200F29E1D
:0E0BA00001011A6B1B6B1C6B1D6BF28E120099
:020BAE00500EE7
:100BB000F66E000EF76E000EF86E02010900F55099
:100BC000B56F0900F550B66F03E1B56701D03DD0B0
:100BD0000900F550B06F0900F550B16F0900F550EC
:100BE000B26F09000900F550E96E0900F550EA6E90
:100BF000090009000900F550B36F0900F550B46F02
:100C000009000900F6CFB7F2F7CFB8F2F8CFB9F282
:100C1000B0C2F6FFB1C2F7FFB2C2F8FF0201B35390
:100C200002E1B45307E00900F550EE6EB307F8E2B5
:100C3000B407F9D7B7C2F6FFB8C2F7FFB9C2F8FFD9
:0C0C40000201B507000EB65BBFD7120022
:040C4C00D9CFE6FF17
:100C5000DACFE6FFE1CFD9FFE2CFDAFFAC6AAB6AC9
:100C6000FD0EDBB0AC88DBA202D0AC8CAB8CDBB46D
:100C7000AC8EDBA602D0AB8801D0AB8ADBB8AC84EB
:100C80009E98DBBAAB86DBAC02D09D8A01D09D9AE0
:100C90009E9ADBAE02D09D8801D09D98FB0EDB5062
:100CA000AF6EFB0EFC0EDBCF11F011C010F0116A1D
:100CB0001050B06EAC8AAB8E949C948EAC50100BDE
:100CC00004E0AC50800B01E1948CE552E5CFDAFFF3
:060CD000E7CFD9FF12007E
:0A0CD600036A026A016A006A200E38
:100CE000E76ED890043605360636073600360136EC
:100CF000023603360950005C0A5001580B50025866
:100D00000C50035809E30950005E0A50015A0B5079
:0E0D1000025A0C50035A042AE72EE4D71200B0
:020D1E00D9CF2B
:100D2000E6FFDACFE6FFFA0EE3CFD9FFFB0EE3CF03
:100D3000DAFFFC0EE3CFE9FFFD0EE3CFEAFFDE5062
:100D4000EF5C02E1EE66FBD7F36EFF0EE3CFDAFF56
:0E0D5000E552FF0EE3CFD9FFE552F35012003B
:020D5E00D9CFEB
:100D6000E6FFDACFE6FFE1CFD9FFE2CFDAFFE652C6
:100D7000F20E0201C517ABAC03D0C591ABB0C58173
:100D8000ABB4C585ABB2C587AE50DF6EDF50E55260
:0C0D9000E552E5CFDAFFE7CFD9FF1200F3
:040D9C00D9CFE6FFC6
:100DA000DACFE6FFE1CFD9FFE2CFDAFFE652E65233
:100DB000FC0EDBCFDEFFDBCFDDFF010EDB50D76E9D
:100DC000DF50D66EE552E552E552E5CFDAFFE7CFC8
:040DD000D9FF120035
:0C0DD400D9CFE6FFDACFE6FFE1CFD9FF70
:100DE000E2CFDAFFFD0EDB507F0BD56ED76AD66AF5
:100DF000F294FD0EDBAE02D0F28A01D0F29AD58ECB
:0C0E0000E552E5CFDAFFE7CFD9FF120082
:040E0C00C26A0F0E99
:100E1000C16E700ED3129B8C95928C92949C948E82
:100E200092968996929289929294899492988998AE
:020E30001200AE
:0E0E320010EE80F020EE80F0F86A0F9CD7ECF6
:0E0E400005F003EC00F029EC05F0FBD71200E2
:020E4E0002019F
:100E5000C76B12000201C70503E1C76B8C9203D078
:080E6000010EC76F8C82120025
:080E6800FF0EE350E84E1200FA
:0E0E7000000000D000D000D0E82EFAD712000B
:020E7E00000072
:100E80000000000000000000000000000000000062
:100E90000000000000000000000000000000000052
:100EA0000000000000000000000000000000000042
:100EB0000000000000000000000000000000000032
:100EC0000000000000000000000000000000000022
:0E0ED0000000000000000000C800000000004C
:020EDE00000012
:100EE0000000000000000000000000000000000002
:100EF00000000000000000000000000000000000F2
:100F000000000000000000000000000000000000E1
:100F100000000000000000000000000000000000D1
:0E0F20000000000000000000000000000000C3
:020F2E000000C1
:0F0F3000000000000000000000000000000000B2
:010F3F004968
:080F400044454F4E49435300A4
:080F480036424131433500003F
:100F50000000354144433839000000003433384143
:060F600043360000000012
:020000040030CA
:0100010008F6
:010002001BE2
:0100030012EA
:010005008179
:010006008178
:010008000FE8
:01000900C036
:01000A000FE6
:01000B00E014
:01000C000FE4
:01000D0040B2
:00000001FF
