:020000040000FA
:0600000096EF06F012006D
:020006001200E6
:080008009EAA02D083EF02F072
:020010001200DC
:08001800F2A402D02AEF04F06B
:0C0020001200D08E9F8AF28EF28C12002B
:04002C00000EF36E61
:1000300000EE00F0060E01D81200EA6002D0EE6A6F
:0C004000FCD7F350E9601200EE6AFCD718
:01004C0000B3
:01004D0000B2
:02004E00FFFFB2
:1000500007004E000000A5020000020000004D0055
:100060000000A902000001000000120E00009C0226
:100070000000090000004C00000000030000010027
:100080000000C20D00000002000050000000A40D9E
:100090000000000100001E000000620D0000500280
:0600A00000004200000018
:0A00A600D9CFE6FFE1CFD9FFFE0E2F
:1000B000DBCF01F2FD0EDBCF02F2FC0EDBCF03F251
:1000C000FB0EDBCF04F2F90EDBCF45F2FA0EDBCFED
:1000D00046F204D8E552E7CFD9FF1200800EE66E53
:1000E000250EE66EE66AE66A24EC03F0E552E55278
:1000F000E552E5520201416B426B010E006F436B0A
:10010000050E446F4BC247F24CC248F24DC249F251
:100110004EC24AF200C24FF212000201416B426B22
:10012000010E006F436B050E446F4BC247F24CC289
:1001300048F24DC249F24EC24AF200C24FF21200DA
:10014000D9CFE6FFE1CFD9FF060EE126DF6A23EC27
:1001500005F004C04BF205C04CF206C04DF207C0DA
:100160004EF2470EE96E020EEA6EEE5002014B1996
:1001700009E1EE504C1906E1EE504D1903E1EE5045
:100180004E1900E113E000514F5D08E1020E005DE1
:1001900005E14407445102E1A1DFBED04BC247F262
:1001A0004CC248F24DC249F24EC24AF20051030A13
:1001B00001E1ADD0010A16E0030A02E0AEDFAAD0E9
:1001C000E5EC03F0000901E1A7D002EC04F0DF6EDA
:1001D00002010151DF5C05E1416B020E006F050E6B
:1001E000446F98D0E5EC03F0000901E195D002ECF2
:1001F00004F0DF6E02010251DF5C74E1020EDB6A83
:10020000030EDB68D950030FE66E000EDA20E66EAF
:100210008DD8E552E552E76E020EE7CFDBFFDB50EB
:10022000020A54E0030A05E0010A01E057D075DF35
:1002300073D002014551461147E0D950040FE66ED4
:10024000000EDA20E66E430EE66E020EE66E070E34
:10025000E66E020EE66E05D046C2FAFF0201455177
:10026000F96EFADF106E060EE15E10500201426F69
:10027000FA0E236F422B43C224F2422BDE52020EAF
:10028000DD6E4251F36E010EDBCFF4FFF350F45CF0
:100290001AE2040EDBCFE9FF050EDBCFEAFFEF50D9
:1002A000E66E010EDB50EA6A230FE96E020EEA22C7
:1002B000E552E750EF6E040EDB2A050E01E3DB2A60
:1002C000010EDB2ADED701D028DF08D00201FA0EAA
:1002D000236F422B43C224F2422B00D00201030EB3
:1002E000006F14D04151412BEA6A050FE96E020EEE
:1002F000EA22DFCFEFFF1E0E415D08E3FA0E236F07
:10030000422B900E246F422B030E006F03D05AD85D
:1003100004DF00D000C24FF2060EE15C02E2E16AA7
:10032000E552E16EE552E7CFD9FF1200D9CFE6FFE3
:10033000E1CFD9FF020EE12602014105EA6A050F6D
:10034000E96E020EEA22EFCFDFFF010EDB6AFA0E42
:10035000055D05E0FF0E055D02E0000E27D04105BA
:10036000E66E050EE66E020EE66E9BD8E552E5528D
:10037000E552E76E010EE7CFDBFFDB50DF5C0CE1FF
:10038000020141074151EA6A050FE96E020EEA22B5
:10039000EF6A010E0BD00AD0FD0EDBCFE9FFFE0E97
:1003A000DBCFEAFF910EEF6E000E00D0106E020E52
:1003B000E15C02E2E16AE552E16E1050E552E7CFFE
:1003C000D9FF1200D9CFE6FFE1CFD9FF020EE12617
:1003D000DF6A010EDB6A42C2E6FF230EE66E020E02
:1003E000E66E5FD8E552E552E552DF6E03C2E6FFE6
:1003F00088EC03F0E552010EDB6A02014251F36E14
:10040000010EDBCFF4FFF350F45C0FE2010EDB5082
:10041000EA6A230FE96E020EEA22EF50E66E88ECDC
:1004200003F0E552010EDB2AE8D7DFCFE6FF88ECC8
:1004300003F0E55204C2E6FF88EC03F0E552A4ECB9
:1004400003F00400020EE15C02E2E16AE552E16EB3
:10045000E552E7CFD9FF1200D9CFE6FFE1CFD9FFB0
:10046000FD0EDBCFF6FFFE0EDBCFF7FF0800F550E9
:1004700012E0FD0EDBCFF6FFFE0EDBCFF7FF08002C
:10048000F550E66E88EC03F0E552FD0EDB2AFE0E19
:1004900001E3DB2AE5D7A4EC03F0E552E7CFD9FF6F
:1004A0001200D9CFE6FFE1CFD9FF030EE126DF6AC4
:1004B000010EDB6AFC0EDB50F36E010EDBCFF4FFA6
:1004C000F350F45C12E2010EDB50E76EFD0EDBCF61
:1004D000E9FFFE0EDBCFEAFFE750E926000EEA2235
:1004E000EF50DF1A010EDB2AE5D7DF50106E030E46
:1004F000E15C03E200D0E16AE552E16E1050E552A2
:06050000E7CFD9FF120055
:0A050600DACFE4FFE2CFDAFFE9CF1D
:10051000E4FFEACFE4FFF6CFE4FFF7CFE4FFF5CF47
:10052000E4FFF3CFE4FFF4CFE4FFFACFE4FF00EE03
:1005300000F0100EE80403E3EECFE4FFFBD700EE7B
:1005400010F0040EE80403E3EECFE4FFFBD7E6521D
:10055000D9CFE6FFE1CFD9FFE6522CEC06F0DF6EF3
:1005600002017151712BEA6A740FE96E020EEA22E0
:10057000DFCFEFFF1E0E715D01E3716B732B9E9A4F
:10058000E552E552E7CFD9FFE55200EE13F0040E35
:10059000E80403E3E5CFEDFFFBD700EE0FF0100E0C
:1005A000E80403E3E5CFEDFFFBD7E5CFFAFFE5CFA6
:1005B000F4FFE5CFF3FFE5CFF5FFE5CFF7FFE5CF9C
:1005C000F6FFE5CFEAFFE5CFE9FFE5CFDAFF11005F
:1005D000DACFE4FFE2CFDAFFE9CFE4FFEACFE4FFCE
:1005E000E652D9CFE6FFE1CFD9FFE65202015251E0
:1005F00004E1ACA2FED7AC9A1BD05151EA6A530F6A
:10060000E96E020EEA22EFCFDFFFDF50AD6E512B15
:100610001E0E515D01E3516B000EE76E5219E8AEFC
:1006200002D0523503D0E750D880525501E252072C
:10063000E552E552E7CFD9FFE552E5CFEAFFE5CF36
:10064000E9FFE5CFDAFF1100D9CFE6FFE1CFD9FF0F
:10065000E6527C0EDF6ED950FB0FE96EFF0EDA20FA
:10066000EA6EEE2A000EEE22EE22EE22D950FB0FA9
:10067000E96EFF0EDA20EA6E040EE76ED890EF36D0
:10068000010EEB36020EEB36030EEB36E706F6E113
:10069000106A480E116EE80E126E010E136E10C035
:1006A00004F011C005F012C006F013C007F0FB0EF5
:1006B000DBCF09F0FC0EDBCF0AF0FD0EDBCF0BF039
:1006C000FE0EDBCF0CF0E7EC05F0FB0E04C0DBFF09
:1006D000FC0E05C0DBFFFD0E06C0DBFFFE0E07C0F3
:1006E000DBFFFB0EDBCFE6FFFC0EDBCFE6FFDFCF51
:1006F000E6FFA2EC05F0E552E552E552D08EAC8A59
:10070000AC9EF28C9F8AE552E552E7CFD9FF1200EA
:10071000D9CFE6FFE1CFD9FFACA2FED702015051FD
:10072000502BEA6A530FE96E020EEA22FE0EDBCF6F
:10073000EFFF522B1E0E505D01E3506B010E00D0F7
:10074000E552E7CFD9FF1200D9CFE6FFE1CFD9FFBD
:10075000020EE126000E0201E76E5219E8AE02D049
:10076000523503D0E750D880525523E25151EA6AFE
:10077000530FE96E020EEA22010EEFCFDBFFACA2AF
:10078000FED7010EDB50AD6EACA2FED70201512B9D
:100790001E0E515D01E3516B000EE76E5219E8AE7B
:1007A00002D0523503D0E750D880525501E25207AB
:1007B000D1D7106E020EE15C02E2E16AE552E16E11
:1007C0001050E552E7CFD9FF1200D9CFE6FFE1CFB5
:1007D000D9FFE652DF6A9D9A000E0201E76E731997
:1007E000E8AE02D0733503D0E750D880735502E2EB
:1007F000010EDF6E9D8ADF5000D0E552E552E7CF53
:10080000D9FF1200D9CFE6FFE1CFD9FFE6529D9A7A
:1008100002017251722BEA6A740FE96E020EEA222B
:10082000EFCFDFFF1E0E725D01E3726B000EE76E0D
:100830007319E8AE02D0733503D0E750D8807355F2
:1008400001E273079D8ADF5000D0E552E552E7CF01
:04085000D9FF1200BA
:0C085400DACFE4FFE2CFDAFFE9CFE4FFE7
:10086000EACFE4FFF6CFE4FFF7CFE4FFF5CFE4FFF4
:10087000F3CFE4FFF4CFE4FFFACFE4FF00EE00F0A3
:10088000100EE80403E3EECFE4FFFBD700EE10F018
:10089000040EE80403E3EECFE4FFFBD7E652F29444
:1008A00001010E2B000E0F23102B1123122B1323EB
:1008B000142B1523162B17231807195B193504E27F
:1008C00018510008000E195508E31A2B000E1B23BF
:1008D0001C231D23C80E186F196B0251031107E06A
:1008E00005D003C1FAFF01010251F96EFADF00C120
:1008F000E6FF01C1E6FF4BEC06F0E552E552E5529A
:1009000000EE13F0040EE80403E3E5CFEDFFFBD7A0
:1009100000EE0FF0100EE80403E3E5CFEDFFFBD788
:10092000E5CFFAFFE5CFF4FFE5CFF3FFE5CFF5FF25
:10093000E5CFF7FFE5CFF6FFE5CFEAFFE5CFE9FF2B
:06094000E5CFDAFF110013
:0A094600D9CFE6FFE1CFD9FF090E7B
:10095000E126070EDB6A080EDB6A83EC06F0000E68
:10096000E66EE66ADF0EE66EB10EE66EFFEC04F0B0
:10097000E552E552E552E5521A0EE66E0C0EE66EB1
:10098000DD0EE66ECC0EE66EBB0EE66EAA0EE66ED1
:1009900053EC00F0106E060EE15E10500BEC06F00A
:1009A00011EC00F00101640E0E5D000E0F5905E31D
:1009B000A7EC06F001010E6B0F6B0101020E125D38
:1009C000000E135905E3A0EC00F00101126B136B4C
:1009D0000101F40E145D010E155905E30CEC06F04F
:1009E0000101146B156B0400DDD7090EE15C02E216
:0E09F000E16AE552E16EE552E7CFD9FF120051
:0209FE00D9CF4F
:100A0000E6FFE1CFD9FF9F0EE66E67EC06F0E552F8
:100A1000FD0EDBCF00F1FE0EDBCF01F1FB0EDBCFD5
:100A200002F1FC0EDBCF03F1F194FD0EDBCFE6FF0C
:100A3000FE0EDBCFE6FF4BEC06F0E552E552E55249
:100A4000E7CFD9FF1200D9CFE6FFE1CFD9FF040EDF
:100A5000E126F29A1AC1DFFF010E1BC1DBFF020E75
:100A60001CC1DBFF030E1DC1DBFFF28ADECF04F0E9
:100A7000DECF05F0DECF06F0DDCF07F0DD52DD5230
:100A8000040EE15C03E200D0E16AE552E16EE5525A
:100A9000E7CFD9FF1200F29E01011A6B1B6B1C6B92
:060AA0001D6BF28E120036
:0A0AA600500EF66E000EF76E000E03
:100AB000F86E02010900F550976F0900F550986F24
:100AC00003E1976701D03DD00900F550926F09000E
:100AD000F550936F0900F550946F09000900F55027
:100AE000E96E0900F550EA6E090009000900F550A9
:100AF000956F0900F550966F09000900F6CF99F23D
:100B0000F7CF9AF2F8CF9BF292C2F6FF93C2F7FFAB
:100B100094C2F8FF0201955302E1965307E00900E1
:100B2000F550EE6E9507F8E29607F9D799C2F6FFF1
:100B30009AC2F7FF9BC2F8FF02019707000E985B6D
:040B4000BFD7120009
:0C0B4400D9CFE6FFDACFE6FFE1CFD9FF02
:100B5000E2CFDAFFAC6AAB6AFD0EDBB0AC88DBA299
:100B600002D0AC8CAB8CDBB4AC8EDBA602D0AB88F5
:100B700001D0AB8ADBB8AC849E98DBBAAB86DBAC29
:100B800002D09D8A01D09D9A9E9ADBAE02D09D88AC
:100B900001D09D98FB0EDB50AF6EFB0EFC0EDBCF41
:100BA00011F011C010F0116A1050B06EAC8AAB8E0B
:100BB000949C948EAC50100B04E0AC50800B01E17F
:0E0BC000948CE552E5CFDAFFE7CFD9FF1200A3
:020BCE00036AB8
:100BD000026A016A006A200EE76ED8900436053674
:100BE0000636073600360136023603360950005CF9
:100BF0000A5001580B5002580C50035809E3095091
:100C0000005E0A50015A0B50025A0C50035A042A33
:060C1000E72EE4D71200FC
:0A0C160012001200D9CFE6FFE1CF73
:100C2000D9FF030EE126FD0EDBCFE9FFFE0EDBCF81
:100C3000EAFF010EEFCFDBFF020EDB6ADB50106E26
:100C4000030EE15C03E200D0E16AE552E16E105070
:080C5000E552E7CFD9FF1200C5
:080C5800D9CFE6FFDACFE6FF79
:100C6000E1CFD9FFE2CFDAFFE652F20E0201A71779
:100C7000ABAC03D0A791ABB0A781ABB4A785ABB2A7
:100C8000A787AE50DF6EDF50E552E552E5CFDAFFC1
:060C9000E7CFD9FF1200BE
:0A0C9600D9CFE6FFDACFE6FFE1CF89
:100CA000D9FFE2CFDAFFE652E652FC0EDBCFDEFFE1
:100CB000DBCFDDFF010EDB50D76EDF50D66EE55285
:0E0CC000E552E552E5CFDAFFE7CFD9FF12008B
:020CCE00D9CF7C
:100CD000E6FFDACFE6FFE1CFD9FFE2CFDAFFFD0E84
:100CE000DB507F0BD56ED76AD66AF294FD0EDBAE71
:100CF00002D0F28A01D0F29AD58EE552E5CFDAFF22
:060D0000E7CFD9FF12004D
:0A0D0600C26A0F0EC16E700ED31208
:100D10009B8C96908D90949C948E929289929296B0
:0C0D200089969294899492988998120008
:040D2C0010EE80F055
:100D300020EE80F0F86A0F9C53EC05F003EC00F015
:080D4000A3EC04F0FBD7120044
:080D48000201A96B1200020177
:100D5000A90503E1A96B8D9003D0010EA96F8D80C9
:020D600012007F
:0E0D6200000000000000000000000000000083
:100D70000000000000000000000000000000000073
:100D80000000000000000000000000000000000063
:100D90000000000000000000000000000000000053
:040DA000000000004F
:0C0DA40000000000000000000000000043
:100DB000000000000000000000000000C80000006B
:020DC000000031
:0E0DC200000000000000000000000000000023
:100DD0000000000000000000000000000000000013
:100DE0000000000000000000000000000000000003
:100DF00000000000000000000000000000000000F3
:100E000000000000000000000000000000000000E2
:020E10000000E0
:090E12004944454F4E4943530089
:020000040030CA
:0100010008F6
:010002001BE2
:0100030012EA
:010005008179
:010006008178
:010008000FE8
:01000900C036
:01000A000FE6
:01000B00E014
:01000C000FE4
:01000D0040B2
:00000001FF
